:100000000C94C3030C94E0030C94E0030C94E00301
:100010000C94E0030C94E0030C94E0030C94E003D4
:100020000C94E0030C94E0030C94DB2A0C94AD2BAD
:100030000C944E230C94E0030C94E0030C94E00326
:100040000C94E0030C94E0030C94E0030C94E003A4
:100050000C94E0030C94B6230C94E0030C94E0039E
:100060000C94E0030C94E0030C94E0030C94E00384
:100070000C94E0030C94E0030C94E0030C94E00374
:100080000C94E0030C94E0030C94E0030C94E00364
:100090000C94E0030C94E0030C94E0030C94E00354
:1000A0000C94E0030C94E0030C94E00338043B044C
:1000B0003E044104440447044A0473077807820756
:1000C00076077B0780077E07B208B408BF08B6082A
:1000D000B808BA08BC08BE08C108C308C508D008DB
:1000E000C708C908CB08CD08CF08D208A018A018A7
:1000F000D218D21809192919921AF01A6B19F01A84
:10010000181A181A891AF01AF01AEA1A251A251A52
:10011000251A251A251A251A251A251A251A251AE7
:10012000251A251A251A251A251A251A361A431AA8
:100130004A1A511A5B1A7D1B7D1B8F1B8F1B861B56
:100140008F1B8F1B8F1B7D1B7D1B8B1B8F1B8F1B87
:100150008B1B1A2C412C332D412C332D8D2CB02C84
:10016000332D062D152D07634236B79BD8A71A39B4
:10017000685618AEBAAB558C1D3CB7CC5763BD6DF5
:10018000EDFD753EF6177231BF000000803F05A8F7
:100190004CCDB2D44EB93836A9020C50B9918688EC
:1001A000083CA6AAAA2ABE000000803F6572676FBD
:1001B000646F785F657A2F366130346163616636CB
:1001C0003334306465303562643162204020302E33
:1001D000362E3232302D362D673438346338352D93
:1001E0006469727479000000F0A12E002B004C00AD
:1001F000E100354100001E00140004001D613400C0
:100200004D001F001A0016001B00E1042A00200008
:1002100008000700060050002C002100150009000E
:1002200019004F004A00220017000A0005000000D4
:100230006564500001530000000F0000E3004F0010
:100240000153000000070000E20023001C000B0027
:10025000110000002961240018000D001000520058
:100260004B0025000C000E0036005100280026002F
:1002700012000F0037002F002B002700130033421D
:10028000387130004E002D0031003468E500015116
:1002900000002900010001000100010000003A00F7
:1002A0001E0220022202010001003B001F02210267
:1002B00023020100C95C3C002F0226022F0001002E
:1002C000CA5C3D00300227023000010001003E0000
:1002D0003102350035020000C35C0100010000005E
:1002E0000100000001000100010000000100000009
:1002F000C25C3F005200510024020000E75C400055
:10030000240021001E000100010041002500220000
:100310001F003700C55C4200260023002000270094
:10032000C65C43002502010031002E00010044009C
:100330004500010001000100000001000100010072
:1003400001000100000001000100010001000100A6
:10035000010001000100F2000100010001000100A4
:10036000F000F1000100F400010001000100F300C1
:100370000100F50001000100010001000100000082
:100380000100010001000000010000000100010067
:100390000100000001000000010001000100010057
:1003A0000100000001000100010001000100A9009E
:1003B0000100010001000100AC00AA00B60001002C
:1003C00001000100AB00A8000100010001000100D4
:1003D00001000100010001000100AE000100010068
:1003E000000000000000000000002A2B2800000090
:1003F00000000000000000000000000000290000D4
:1004000000002C1E3420212224342627252E362DB0
:100410003738271E1F202122232425263333362E4A
:1004200037381F0405060708090A0B0C0D0E0F10BC
:100430001112131415161718191A1B1C1D2F313001
:10044000232D350405060708090A0B0C0D0E0F10A5
:100450001112131415161718191A1B1C1D2F3130E1
:10046000354C00000000000000000000000000000B
:10047000000000000000000000000000000000007C
:100480000000000101010101010001010101000062
:10049000000000000000000000000000010001005A
:1004A000010101010101010101010101010101013C
:1004B000010101010101010101010101010000002F
:1004C000010100000000000000000000000000002A
:1004D0000000000000000000000000000001010119
:1004E000010000047F3F1F643214643214783C1E04
:1004F0001E140A056801F000B40078005A000000DC
:1005000000000001010101010101010102020202DA
:1005100002020202020303030303030303040404AD
:100520000404040505050505060606060607070773
:1005300007080808080909090A0A0A0A0B0B0B0C24
:100540000C0C0D0D0D0E0E0F0F0F101011111112BE
:100550001213131414151516161717181819191A3B
:100560001A1B1C1C1D1D1E1F1F202021222223249C
:10057000252526272728292A2B2B2C2D2E2F2F30D7
:10058000313233343536363738393A3B3C3D3E3FED
:100590004041424344464748494A4B4C4D4F5051D5
:1005A0005253555657585A5B5C5E5F60626364668F
:1005B00067696A6C6D6E707173747678797B7C7E16
:1005C0008081838486888A8B8D8F91929496989A65
:1005D0009B9D9FA1A3A5A7A9ABADAFB1B3B5B7B97B
:1005E000BBBDBFC1C4C6C8CACCCFD1D3D6D8DADC54
:1005F000DFE1E4E6E8EBEDF0F2F5F7FAFCFF0403E7
:100600003000000016034500720067006F004400D0
:100610006F007800200045005A00000016034500D6
:10062000720067006F0044006F00780020004500F2
:100630005A0000000403090409023B00020100A063
:10064000FA09040000010301010009211101000160
:100650002240000705810308000A09040100010384
:1006600000000009211101000122C00007058203DA
:1006700020000A1201100100000008EDFE0713011E
:10068000000102030105010902A10185020901A17E
:100690000005091901290515002501950575018138
:1006A0000295017503810105010930093115812584
:1006B0007F95027508810609381581257F9501759A
:1006C000088106050C0A38021581257F95017508F9
:1006D0008106C0C005010980A1018503160100261D
:1006E00003001A81002A8300751095018100C0055E
:1006F0000C0901A1018504160100269C021A0100C3
:100700002A9C02751095018100C005010906A1010E
:100710008505050719E029E71500250195087501EC
:1007200081020508190129059505750191029501B8
:10073000750391010507190029EF1500250195F0B2
:1007400075018102C005010906A101050719E0290B
:10075000E71500250195087501810295017508814D
:100760000105081901290595057501910295017585
:100770000391010507190029FF150026FF009506C2
:1007800075088100C00011241FBECFEFDAE0DEBF84
:10079000CDBF11E0A0E0B1E0EAE6F2E602C00590CC
:1007A0000D92AA3CB107D9F723E0AAECB1E001C051
:1007B0001D92AE3AB207E1F70E94FD270C94333147
:1007C0000C94000080B38C7080BB81B3836F81BBBD
:1007D000089584B1807F84B985B1807F85B98AB15D
:1007E000837F8AB98BB1837F8BB93E9846980895F1
:1007F000CF93E82F873090F580910001909101010F
:10080000892B09F049C0CE2F64E670E080E40E9495
:1008100079059093010180930001892BD1F464E65E
:1008200070E082E10E94D005909301018093000165
:10083000892B79F481E090E001C0880FCA95EAF72E
:1008400064E670E080950E94D0059093010180934A
:10085000000184E690E0CF910C94250690E0FC0125
:100860003797E730F105C0F4EA5AFF4F0C94D830BF
:10087000209A289811C0219A29980EC0229A2A9865
:100880000BC0239A2B9808C0529A5A9805C0539AC5
:100890005B9802C03E9A4698CF91089508950895B6
:1008A0000C944F04CF93DF930E94B70690E090938F
:1008B0000101809300010E94E9030E94E203AFE17D
:1008C000B2E02BEC31E0EDE2F2E04EE04E0F11929F
:1008D0001D9280E090E0E901C80FD91F18820196AF
:1008E00086309105C1F72A5F3F4F4E13F0CFDF915D
:1008F000CF910C94EB070E94B70690E09093010112
:10090000809300010E94E9030E94E203EDE2F2E01D
:100910008EE08E0F11928E13FDCF0895CF93DF934B
:10092000E62FF0E0E15EFD4F40814827808386E0BE
:10093000689FF0011124E553FE4F20E030E080E095
:1009400061E070E050E0AAE0B22F9081992319F0A5
:100950009150908307C0EB01022E01C0CC0F0A9486
:10096000EAF78C2BEA0102C0D595C795BA95E2F754
:10097000C0FDA0832F5F3F4F31962630310521F710
:10098000DF91CF910895CF93DF93D82F873008F070
:1009900040C08091000190910101892B09F042C073
:1009A00064E670E080E40E947905909301018093F1
:1009B0000001892B11F0C0E027C064E670E083E1FC
:1009C0000E94D0059093010180930001892B99F733
:1009D00064E670E081E40E947905909301018093C0
:1009E0000001892B41F784E690E00E94000697FF02
:1009F00005C09093010180930001DDCFC82FC09501
:100A0000109201011092000184E690E00E942506F8
:100A10000AC09FB1CFB1C07FC695C6959370C92B50
:100A2000C09501C0C0E06D2F8C2F0E948E04282F2E
:100A30002095ED2FF0E0E35DFD4F908192238C2314
:100A4000892BDF91CF910895EF92FF920F931F931F
:100A5000CF93DF938091000190910101892B91F058
:100A60008091CA018F5F8093CA0181110BC00E94DF
:100A7000B70690E09093010180930001892B11F457
:100A80000E9449068DE2E82E82E0F82E04E312E08F
:100A9000C0E08C2F0E94F803D7E0DC0F8D2F0E945E
:100AA000F8038C2F0E94C304F70181937F018D2FDF
:100AB0000E94C304F80181938F010E94E903CF5F74
:100AC000C73039F70E94F50781E0DF91CF911F9180
:100AD0000F91FF90EF900895E82FF0E0E35DFD4F58
:100AE0008081089508951092B9008CE08093B80039
:100AF0000895EF92FF920F931F93CF93DF93182FD8
:100B0000EB011092BC0084EA8093BC000E94802319
:100B10007C019091BC0097FD0EC0CF3F8FEFD807AE
:100B2000C1F30E9480238E199F098C179D0788F3BB
:100B30008EEF9FEF2EC09091B900987F983041F0D2
:100B40009091B900987F903119F08FEF9FEF21C0FD
:100B50001093BB0084E88093BC000E9480238C012A
:100B60009091BC0097FD0CC0CF3F8FEFD807C1F329
:100B70000E948023801B910B8C179D0788F3D8CF90
:100B80008091B900887F883111F08034F1F680E0DF
:100B900090E0DF91CF911F910F91FF90EF9008951A
:100BA0000F931F93CF93DF93EB018093BB0084E8F7
:100BB0008093BC000E9480238C019091BC0097FD23
:100BC0000EC0CF3F8FEFD807C1F30E948023801B58
:100BD000910B8C179D0788F38EEF9FEF0CC020912F
:100BE000B900287F81E090E0283211F480E090E0A5
:100BF000919581959109DF91CF911F910F91089562
:100C00000F931F93CF93DF93EC0184E88093BC0094
:100C10000E9480238C019091BC0097FD0EC0CF3FB5
:100C20008FEFD807C1F30E948023801B910B8C1794
:100C30009D0788F38EEF9FEF03C08091BB0090E08B
:100C4000DF91CF911F910F9108950F931F93CF9331
:100C5000DF93EC0184E98093BC000E9480238C0127
:100C60009091BC0094FF0EC0CF3F8FEFD807C1F327
:100C70000E948023801B910B8C179D0788F38EEFB9
:100C80009FEF02C080E090E0DF91CF911F910F9124
:100C9000089556985E9825982D9826982E9827980E
:100CA0002F988FEF90E09093890080938800909325
:100CB0008B0080938A0090938D0080938C00259AFE
:100CC0002D9A2FEF80E792E0215080409040E1F78D
:100CD00000C00000269A2E9A2FEF80E792E0215064
:100CE00080409040E1F700C00000279A2F9A2FEF34
:100CF00080E792E0215080409040E1F700C0000082
:100D000025982D982FEF80E792E021508040904069
:100D1000E1F700C0000026982E982FEF80E792E0C0
:100D2000215080409040E1F700C0000027982F98A4
:100D300056985E9825982D9826982E9827982F9843
:100D4000089589EA8093800089E080938100249847
:100D50002C983F988AB18F7C8AB96E98479A8BB14C
:100D600080638BB9769A0E9449060C944E0480E207
:100D700090E0909301018093000180913B028111EA
:100D80000EC00E94730581E080933B022FEF83ED3C
:100D900090E3215080409040E1F700C0000064E6FD
:100DA00070E080E40E947905909301018093000136
:100DB000892B09F050C064E670E080E00E94D00505
:100DC0009093010180930001892B09F044C064E6EF
:100DD00070E080E00E94D0059093010180930001B3
:100DE000892BC9F564E670E08FE30E94D0059093EB
:100DF000010180930001892B71F584E690E00E9447
:100E0000250664E670E080E40E9479059093010174
:100E100080930001892BF9F464E670E08CE00E9475
:100E2000D0059093010180930001892BA1F464E621
:100E300070E080E00E94D005909301018093000152
:100E4000892B49F464E670E08FE30E94D00590930B
:100E500001018093000184E690E00E9425068091C4
:100E600000010895611108C0FC018281882321F0EE
:100E70008CEA91E00E94E80780E090E00895863EC9
:100E80002CE5920721F0873E9C4541F010C0FB0104
:100E90008281882369F00E946C2207C0FB01828155
:100EA000882331F081E00E94CC1080E0089581E039
:100EB0000895CF92DF92EF92FF926B017C010E9426
:100EC000AE2156985E9825982D9826982E982798AA
:100ED0002F9890E0FC013197E730F105A8F4E35A30
:100EE000FF4F0C94D830259A2D9A0EC0259A2D9A32
:100EF000269A2E9A09C0259A2D9A04C0259A2D9AD1
:100F0000269A2E9A279A2F9AC701B601FF90EF9042
:100F1000DF90CF90089581E008950C943F07CF9320
:100F2000282F30E0F901EE51FC4FC491F901EE5940
:100F3000FB4F2491222359F081EE0E94D0168C2F72
:100F40000E94D0168C2F0E94EE1781EE04C08C2FC9
:100F50000E94D0168C2FCF910C94EE170F931F93F5
:100F6000CF93DF93EC01062FFE018491882359F182
:100F70009E012F5F3F4F813041F4E901F901149147
:100F8000812F0E94D016812F0DC0823031F4E901EB
:100F9000F90184910E94D0160AC0833031F4E9012E
:100FA000F90184910E94EE1702C00E948F072196DA
:100FB000802F8823C9F2EFE9FFE03197F1F700C0F5
:100FC00000008150F6CFDF91CF911F910F910895CE
:100FD00060E00C94AE070E94FE21811102C00E94C5
:100FE0006C220E94430D0C94A1060C945004282FEF
:100FF0002F7041F0822F90E02A3010F44D96089522
:101000000697089587E290E0089508950C940508E6
:101010000C94060808950E946B1B0E940A082FEF8B
:1010200084E39CE0215080409040E1F700C0000044
:101030000C94DC23FF920F931F93CF93DF938C01CB
:10104000FC01C081D18180918502811113C0828110
:10105000882349F0CE010E949E20F82E682FCE01F1
:101060000E94412004C0CE010E947120F82EBE01D2
:101070008F2D04C0CE010E949E20BE010E94B50AA1
:10108000EC01B8010E948D07882309F466C2B801FB
:10109000CE010E94BE0D882309F45FC2CC3CFCE562
:1010A000DF0741F4F8018281882309F456C20E94C7
:1010B0009F0E53C2CD3C8CE5D80708F01EC1C43C3E
:1010C0009CE5D90761F4F8018281882309F445C2BF
:1010D0000E946F218272E1F40E94C9103EC2C53C99
:1010E000ECE5DE0708F0C7C0C531FCE5DF0798F086
:1010F000C23CFCE5DF0709F48CC008F492C0F8019B
:101100008281882309F429C20E946F21827221F70B
:101110000E94BB1022C2C2308CE5D80708F452C02E
:10112000F8018281882309F459C00E94FE218111AF
:1011300002C00E946C220E94112290E09093A003B2
:1011400080939F03FE01E350FC45E231F10530F44A
:10115000EC59FF4F80919F030C94D83080919F03EE
:10116000816027C0826025C0846023C0806121C067
:1011700080621FC080641DC080681BC0846088605E
:1011800018C08E7F16C08D7F14C08B7F12C08F7EDB
:1011900010C08F7D0EC08F7B0CC08F770AC08B7FF5
:1011A000877F07C087FB222720F991E0922790FBD9
:1011B00087F980939F0380919F030E9415220E94CC
:1011C0006B1BCBC1C1159CE5D90781F0C130DC4553
:1011D000A9F081E08093410280934202C801DF912F
:1011E000CF911F910F91FF900C948B07F801828192
:1011F000882309F4B2C10E940B08AFC1F8018281B3
:10120000882309F4AAC18091240381608093240378
:10121000A4C1F8018281882309F49FC10E9424118E
:101220009CC1C631DC45A9F60E946F21282FF80128
:10123000828140910F0150911001882379F02A7A20
:1012400091E009F490E090933C02911102C069E2B0
:1012500001C065E3CA010E94D3220AC080913C020A
:10126000811102C069E201C065E3CA010E94DE2269
:101270000E943C2172C1F8018281C83CFCE5DF0775
:1012800031F4882309F469C10E94221066C1C93C67
:101290009CE5D907C8F4C63CECE5DE0731F48823A9
:1012A00009F45BC10E94F40F58C1C73CDC4530F41F
:1012B000882309F452C10E94D00F4FC1882309F43A
:1012C0004CC10E940B1049C1CA3C9CE5D90731F4BE
:1012D000882309F442C10E9462103FC1CB3CDC4527
:1012E00030F4882309F439C10E94421036C18823A2
:1012F00009F433C10E948A0E30C1C43DFCE5DF070A
:1013000091F4F8018281882309F427C10E94810E9B
:10131000893128F00E94810E823208F4F9CE89E1E9
:101320000E94CC101AC1C53D8CE5D80708F068C0F2
:10133000F8018281C03DFCE5DF0771F4882309F4E0
:101340000CC10E94810E893028F00E94810E8E30DF
:1013500008F4DECE89E0E4CFC13D9CE5D90740F535
:10136000CE3CECE5DE0771F4882309F4F6C00E9458
:10137000810E823028F00E94810E853008F4C8CE9C
:1013800082E0CECFCF3CDC4528F4882309F4E5C0C9
:1013900081E0C6CF882309F4E0C00E94810E863028
:1013A00028F00E94810E883008F4B2CE86E0B8CFD3
:1013B000C23D9CE5D90771F4882309F4CEC00E9490
:1013C000810E853128F00E94810E873108F4A0CE6D
:1013D00085E1A6CFC33DDC4570F4882309F4BDC088
:1013E0000E94810E8F3028F00E94810E843108F413
:1013F0008FCE8FE095CF882309F4AFC088E190CFDE
:10140000C83DFCE5DF0759F5F8018281882361F0CA
:10141000109242020E9480239093400280933F02E8
:1014200080E20E945E1899C080914202882321F0D8
:1014300080E20E94651891C080913F029091400225
:101440000E948C23883C910598F780E20E946518E1
:1014500088E20E94D01688E20E94EE177EC0C93D45
:101460008CE5D80708F058C0F8018281C63DFCE53C
:10147000DF0751F5882351F0109241020E9480232A
:1014800090933E0280933D0282E0CBCF0E946F2179
:1014900085FF05C081E080934102809342028091E4
:1014A000410281110FC080913D0290913E020E9445
:1014B0008C23883C910530F486E20E94D01686E2A7
:1014C0000E94EE1782E0B5CFC73DDC4528F48823A3
:1014D00009F443C083E224CF81119ACF0E946F2187
:1014E00081FF05C081E08093410280934202809198
:1014F000420281119DCF80913F02909140020E9453
:101500008C23883C910508F093CF87E20E94D01687
:1015100087E20E94EE178CCFCC3DECE5DE0741F46C
:10152000F80182818823C9F082E00E949E2815C0BC
:10153000CD3DFCE5DF0739F4F8018281882369F0AD
:101540000E946C220AC0CB3DDC4509F042CEF80176
:101550008281882311F080E0E8CF80E0DF91CF9195
:101560001F910F91FF900895089596E0799FF001E3
:10157000112494E5899FE00DF11D1124E60FF11D62
:10158000EE0FFF1FE651FE4F859194910895880F4D
:10159000991FFC01EA51FE4F859194910895CF93D4
:1015A000DF930E94B50A0E948C0CEC01811520E5A6
:1015B0009207F0F5811530E4930708F029C1883EC1
:1015C000910500F5803E910508F0A2C1883A910589
:1015D00070F4853A910508F0A3C08130910509F4B3
:1015E00097C108F448C1049708F092C144C18F3BE9
:1015F000910508F4A0C0803C910508F43CC1805CD2
:101600009109F8C08115904258F4C11581E0D807BE
:1016100008F07EC1C03FD10508F42DC1D06578C166
:10162000C11590E3D90708F0E9C0CE019F70E2C070
:10163000811525E5920708F043C0811534E593072D
:1016400008F0FDC0811542E5940708F5C11581E554
:10165000D80708F0E0C02C2F237081E090E002C092
:10166000880F991F2A95E2F79C689E0174E03695D1
:1016700027957A95E1F72370922BCF70C695C69582
:1016800040E2C49FE0011124C82BD92B41C18695AB
:1016900086959E0123703327C115D34508F0C0C03D
:1016A00040E2849FC0011124C1E0D0E002C0CC0F11
:1016B000DD1F2A95E2F78C2B9D2BEC01DC6828C1FD
:1016C00081152AE5920798F4811539E5930708F00A
:1016D000C1C08115964508F4B7C0C11588E5D80783
:1016E00008F4C9C0DC2FCC27C06FD06A11C1C11566
:1016F0009BE5D90708F4BFC0C1152CE5D20708F453
:10170000B7C0CE0190568115904208F0B4C08D2F1D
:101710008F710E94090DDD27D0628F71D82BF8C020
:10172000853A910509F4AAC0863A910509F0A9C045
:10173000C2E8D0E4EDC0883A910509F4A5C0893A21
:10174000910509F4A4C08A3A910509F4A3C08B3A23
:10175000910509F4A2C08C3A910509F4A1C08B3B14
:10176000910509F4A0C08C3B910509F49FC08D3A06
:10177000910509F49EC0803B910509F49DC08E3A05
:10178000910509F49CC08F3A910509F49BC0813BF7
:10179000910509F49AC0823B910509F499C0833BF5
:1017A000910509F498C0843B910509F497C0853BE5
:1017B000910509F496C0863B910509F495C0873BD5
:1017C000910509F494C0883B910509F493C0893BC5
:1017D000910509F492C08D3B910509F491C08E3BAF
:1017E000910509F490C08A3B910509F48FC0C0E0CF
:1017F000D4E48EC00E94C70AEC018AC0CE019927AA
:10180000D3FF03C0EC01D86C83C0EC01D06C80C066
:10181000DF70D06A7DC0DC2FCC27C16FD06A78C062
:1018200040E2849FC0011124C1E0D0E002C0CC0F8F
:10183000DD1F2A95E2F7C82BD92BDA6869C0D82FAB
:10184000CC27C46FD06A64C0CF71DD27DC2FCC27D2
:10185000D0625EC08F70806E90E0906A24E0D69572
:10186000C7952A95E1F7CF709C013C2BE90150C048
:10187000DD27D0664DC0C0E0D0E04AC0C1E8D0E46A
:1018800047C0C3E8D0E444C0C2EED4E441C0C9EECE
:10189000D4E43EC0CAEED4E43BC0C5EBD4E438C0C7
:1018A000C6EBD4E435C0C3EBD4E432C0C4EBD4E41B
:1018B0002FC0C7EBD4E42CC0CCECD4E429C0CDECD1
:1018C000D4E426C0C3E8D5E423C0CAE8D5E420C0E8
:1018D000C2E9D5E41DC0C4E9D5E41AC0C1E2D6E42A
:1018E00017C0C3E2D6E414C0C4E2D6E411C0C5E216
:1018F000D6E40EC0C6E2D6E40BC0C7E2D6E408C008
:10190000CFE6D4E405C0C0E7D4E402C0CAE2D6E41E
:10191000CE01DF91CF9108958238910549F1B0F45D
:101920008133910509F458C048F48932910509F4CE
:101930004EC08A32910509F454C00895853391054B
:1019400009F440C08933910599F00895833E9105CB
:1019500029F138F4803E910591F0823E9105A1F085
:101960000895863E9105F9F0873E910531F108957D
:1019700020919F0320FD3AC021FD38C00895809139
:101980009F0380FD35C032C080919F0382FF32C02B
:1019900080919F0384FD30C083EE39C080919F0306
:1019A00082FD28C0F5CF80919F0383FF27C08091DF
:1019B0009F0384FD21C087EE2AC080919F0383FD91
:1019C0001DC0F5CF80919F0385FD1AC01BC080917B
:1019D0009F0385FD17C014C080919F0386FD14C02E
:1019E00015C080919F0386FD11C00EC080EE0FC010
:1019F00089E30DC082EE0BC080E009C086EE07C00F
:101A000089E205C085E303C08AE201C081E390E07A
:101A1000089590919F0392FF0DC0282F28712830C0
:101A200019F4877F846006C0282F2471243011F4B4
:101A30008B7F886093FF0DC0282F2871283119F4FF
:101A4000877E846106C0282F2471243111F48B7E97
:101A5000886194FD877E0895CF93DF93813020E8DD
:101A6000920768F0FB012281222349F0EC010E94D9
:101A7000590DCE019F770E94A10D0E948E0D81E02D
:101A8000DF91CF9108958CE090E00E94EB3090E0E0
:101A9000A0E0B0E08093540390935503A0935603C5
:101AA000B09357030895609154038CE090E00C9438
:101AB000FF300E946F21809343020E948221809117
:101AC0005403813071F048F08230D9F08430F9F459
:101AD00086EE0E94561888E118C082EE0E94D01649
:101AE00016C080EE0E94D01681EE0E94D01688E1CA
:101AF0000E94561881EE0E94EE1780EE0E94EE17AB
:101B000006C082EE0E94D01687E50E9456188FE329
:101B10009CE90197F1F700C00000089580915403FB
:101B2000813021F038F0823029F007C08CE20E9429
:101B3000561803C082EE0E94EE17809143020C9467
:101B40007F210F931F93CF93DF938C01CCE0D0E0E4
:101B5000C8010C2E02C0969587950A94E2F78F7003
:101B60000E94F7070E9456182497CC3F8FEFD807A2
:101B700079F7DF91CF911F910F9108950F931F93E4
:101B8000CF93DF93EC018B01FB018281882319F154
:101B9000C23EFCE5DF07C1F050F4C03EECE5DE07D5
:101BA00081F0C13EFCE5DF07B1F481E010C0C33E27
:101BB0008CE5D80759F0C43EECE5DE0761F484E01B
:101BC00006C01092540305C082E001C083E08093F8
:101BD00054030E94530DB801CE01DF91CF911F91A4
:101BE0000F910C942C0DEF92FF920F931F93CF93B4
:101BF000DF93E901662309F44BC0242F30E0EFEFB7
:101C0000F0E0E61BF109B901E69F9001E79F300D76
:101C1000F69F300D1124232F8B01031B11095CE368
:101C2000E52EF12CB7010E94B030FB01BC01069FEC
:101C3000C001079F900D169F900D1124B7010E94BF
:101C4000B030E230F105B1F040F4309779F03197DF
:101C500011F5832F242F461B21C0E430F105A1F09C
:101C600068F03597C1F4842F861B18C0832F262F68
:101C7000230F14C0862F830FE42F03C0E42FE61B2D
:101C8000842F432F2E2F0AC0842F462F430F06C0C8
:101C9000842F242F03C080E020E040E0E42FF0E018
:101CA000E250FB4F4491E22FF0E0E250FB4F949161
:101CB000E82FF0E0E250FB4FE49149839883EA83F8
:101CC000DF91CF911F910F91FF90EF90089588E0E1
:101CD00090E00C94F330AB01BC0188E090E00C94F0
:101CE0001131E8E5F3E083E08083109259038FEF30
:101CF00082838383148260817181828193810C94B9
:101D00006B0E8091580380FF03C086958F730895F2
:101D100080E0089580915C0390E001968430910505
:101D200014F083E090E080935C036091580370911D
:101D3000590380915A0390915B030C946B0E809130
:101D40005C0390E0019797FF02C080E090E0843050
:101D5000910514F083E090E080935C036091580358
:101D60007091590380915A0390915B030C946B0E10
:101D70008091580380FF06C06FE070E08DE593E02E
:101D80000C94E01480E090E0FC01E35AFC4F1182D7
:101D90001082128204968C339105B1F7EDCF9091A9
:101DA000580390FF0FC020E030E0F901E35AFC4FE8
:101DB0008183608342832C5F3F4F2C333105A9F729
:101DC0000C94B80E0895CF93DF9300D000D0CDB718
:101DD000DEB72091580320FF0AC09E012F5F3F4FBE
:101DE0000E94F30D4B8169818A810E94CF0E0F9072
:101DF0000F900F900F90DF91CF9108955F926F92A7
:101E00007F928F929F92AF92BF92CF92DF92EF928A
:101E1000FF920F931F93CF93DF9300D000D0CDB7E5
:101E2000DEB78C01E62EF42E522E8091580380FFEF
:101E300089C0982F9E77923061F49E012F5F3F4FAB
:101E4000C8010E94F30D4B8169818A810E94CF0EE7
:101E500059C0E82FE695EF739EE39E0F9F73943071
:101E600018F4F0905B034EC09AE39E0F9F73993075
:101E700068F4881F8827881F90915903292F220F03
:101E8000022F082B97FB112710F93CC087E28E0F19
:101E90008F738A30B8F5F0E07997E0FD02C021E059
:101EA00001C02FEFEE7FEC50FB4F859194916FE0D6
:101EB00070E00E94B03026034001279F900C11244F
:101EC000580188E9A81A8EEFB80A8DE5C82E83E07C
:101ED000D82E98E6692E77247394C501B3010E9429
:101EE000B03096014F2D6E2D0E94F30DA80CB91C39
:101EF00084E0C80ED11C89E9C81683E0D80669F7CA
:101F00000E94B80E8091580300FB87F98093580314
:101F1000902F9695809159038078892B10FB87F933
:101F200080935903E0925A03F0925B03552051F0DD
:101F3000609158037091590380915A0390915B030B
:101F40000E946B0E0F900F900F900F90DF91CF912A
:101F50001F910F91FF90EF90DF90CF90BF90AF90C7
:101F60009F908F907F906F905F900895282FE8E565
:101F7000F3E09081991F9927991F30915903832F7E
:101F8000880F482F492B37FB552750F9CA010C966B
:101F900068E671E00E94C430438162810C94FE0EB9
:101FA00081E00C94B60F282F90915803991F992720
:101FB000991F30915903832F880F482F492B37FBE6
:101FC000552750F9CA014C3051051CF4845A9E4FD4
:101FD00001C00C9768E671E00E94C43040915B0339
:101FE00060915A030C94FE0E81E00C94D30FE8E547
:101FF000F3E03081331F3327331F90915903592F5A
:10200000550F97FB992790F9282F43816FEF852F64
:10201000832B0C94FE0E81E00C94F70FE8E5F3E0BF
:102020003081331F3327331F90915903592F550F98
:1020300097FB992790F9282F438160E0852F832B08
:102040000C94FE0E81E00C940E1040915B03242F43
:1020500030E0243F310514F4445F01C04FEF30916C
:102060005803331F3327331F90915903592F550FAE
:1020700097FB992790F9282F60915A03852F832B7E
:102080000C94FE0E81E00C94251040915B03242FEC
:1020900030E02C30310514F04C5001C040E030915C
:1020A0005803331F3327331F90915903592F550F6E
:1020B00097FB992790F9282F60915A03852F832B3E
:1020C0000C94FE0E81E00C94451020E00C94FE0E62
:1020D000CF939091580390FF40C09178811102C036
:1020E000926007C0853210F0986403C08F73880F28
:1020F000982B90935803662351F060915803709188
:10210000590380915A0390915B030E946B0EC0911A
:1021100058036C2F66956F7370E04BE050E084E0DD
:1021200091E00E94DE30892B19F01092610203C009
:1021300081E080936102CC1FCC27CC1F9091590382
:10214000892F880F97FB992790F940915B03609145
:102150005A038C2BCF910C946510CF910895682F62
:102160009091580396959F7381E0890F853208F00E
:1021700081E00C94681081E00C94AF10682F90916E
:10218000580396959F738FEF890F09F484E20C949E
:10219000681081E00C94BE1061E00C946810E8E5D2
:1021A000F3E080818160808386958F730C94CC10DE
:1021B00060E00C9468108091240381608093240374
:1021C0000E94FE21811104C00E946C220E94710EA7
:1021D0000E94670E609358037093590380935A03CB
:1021E00090935B036E7761F40E94710E0E94670EFC
:1021F000609358037093590380935A0390935B0341
:1022000081E0809361028091580380FF04C086952D
:102210008F730C94D8100895E8E5F3E080818E7FE9
:10222000808360817181828193810E946B0E109204
:1022300061022FEF80E792E0215080409040E1F76B
:1022400000C000000C94B80E8091580380FD0C94DF
:102250000C110C94CF10CF93C82F80915F029091F6
:1022600060020E948C23EC2FF0E0E051FB4FE491E0
:10227000F0E08E179F0708F443C00E9480239093DC
:10228000600280935F0260915E0270E080E090E007
:102290000E94B12E20E030E04FE753E40E94D42D9D
:1022A0002BED3FE049E450E40E94DA2F0E944730D2
:1022B0000E944E2E2BE43AE34EE25FE30E94672D2C
:1022C00020EF3BEF48ED52E40E94DA2F0E94802E6F
:1022D000462F80915803881F8827881F90915903A3
:1022E000292F220F97FB992790F960915A03822B8F
:1022F0000E94E30E80915E0290E0019680935E0260
:10230000CF910895CF93C82F80915C0290915D0288
:102310000E948C23EC2FF0E0E351FB4FE491F0E0BE
:102320008E179F07E8F00E94802390935D028093B0
:102330005C0240915B0360915A0380915A02909134
:102340005B020E94E30E80915A0290915B0201961B
:1023500068E671E00E94B03090935B0280935A026D
:10236000CF910895CF92DF92FF920F931F93CF9357
:10237000DF93F82E80915802909159020E948C238D
:10238000EF2DE695F0E0E651FB4FE491F0E08E177B
:102390009F07E8F10E94802390935902809358028E
:1023A0000DE513E0C0E0D0E088E6C82EDD24D3942C
:1023B00080915602909157028C0F9D1FB6010E948A
:1023C000B030980140915B0360915A030E94F30D75
:1023D00068960C5F1F4FC83681E0D80749F70E9406
:1023E000B80E2091560230915702F0FE0AC0C90182
:1023F0000196BE010E94B03090935702809356021E
:1024000006C0215031093093570220935602DF91C4
:10241000CF911F910F91FF90DF90CF900895AF92D1
:10242000BF92CF92DF92EF92FF920F931F93CF93C1
:10243000DF93C82F80FF02C01FEF01C011E0809121
:102440005402909155020E948C23C695EC2FF0E027
:10245000E951FB4FE491F0E08E179F0708F466C046
:102460000E94802390935502809354022DE5C22E42
:1024700023E0D22E3FE5E32E33E0F32EC0E0D0E0A0
:10248000F70131971082F6011082F701108294E073
:10249000A92EB12C00E080915302800F87FD815F4F
:1024A000082E000C990BC817D907E9F480915B033B
:1024B0008A9DA0018B9D500D1124559547955595EA
:1024C000479580915803881F8827881F909159034A
:1024D000592F550F97FB992790F9960160915A0350
:1024E000852B0E94F30D010FF1E0AF1AB10899F6A8
:1024F000219684E0C80ED11CE4E0EE0EF11CCF3032
:10250000D10509F0BDCF0E94B80E80915302113061
:1025100031F4811102C08EE007C0815005C090E007
:102520000196BE010E94C43080935302DF91CF9187
:102530001F910F91FF90EF90DF90CF90BF90AF90E1
:1025400008950F931F93CF93DF93C82F809151026B
:10255000909152020E948C23EC2FF0E0EC51FB4F43
:10256000E491F0E08E179F0708F464C00E94802376
:10257000909352028093510280E090E0FC01E35A74
:10258000FC4F11821082128204968C339105B1F7B0
:10259000C0E0D0E00FE010E0CE01B8010E94C430EE
:1025A000FC0180915002082E000C990BEE0FFF1FCA
:1025B000EE0FFF1FC817D907FCF080910301082E0A
:1025C000000C990B8C179D07BCF09F01235A3C4FC0
:1025D00080915803881F8827881F90915903592F8D
:1025E000550F97FB992790F940915B0360915A032F
:1025F000852B0E94F30D05C0E35AFC4F1182108217
:1026000012822196CF30D10539F60E94B80E809102
:10261000020190915002980F909350022091030173
:10262000280F20930301121614F49E301CF081959C
:1026300080930201DF91CF911F910F910895EF9246
:10264000FF920F931F93CF93DF9380914E0290914F
:102650004F020E948C23883E9340D0F10E94802339
:1026600090934F0280934E02C0914C02D0914D0244
:102670002196C170DD27D0934D02C0934C028DE5A9
:10268000E82E83E0F82E10E008E7812F8695FE0102
:10269000E80FF11DCF0181709927970140915B03ED
:1026A00060915A03FC010E9FC0010F9F900D1124F1
:1026B0000E94F30D1F5FF4E0EF0EF11C1F3029F7AD
:1026C000DF91CF911F910F91FF90EF900C94B80E76
:1026D000DF91CF911F910F91FF90EF900895CF93CD
:1026E000DF9300D000D0CDB7DEB780914A02909141
:1026F0004B020E948C23E2EEF4E025913491821784
:102700009307C0F18091490281110CC09E012F5F97
:102710003F4F4FEF6FEF80E090E00E94F30D8A8112
:10272000809349020E94802390934B0280934A0237
:1027300080914802813051F028F0823061F440915C
:1027400049020AC08091490240E007C060914902F5
:1027500040E080E003C040E080E060E00E94CF0EF7
:102760008091480290E0019663E070E00E94C430DE
:10277000809348020F900F900F900F90DF91CF91B0
:1027800008950F931F93CF93DF938091460290910A
:1027900047020E948C23843F914008F448C00E9465
:1027A00080239093470280934602CDE5D3E000E07A
:1027B00010E020914402309145028091580390919D
:1027C0005903073011051CF4232B79F002C0232B89
:1027D00061F4881F8827881F592F550F97FB992769
:1027E00090F99E0140915B030AC0881F8827881FCB
:1027F000592F550F97FB992790F99E0140E0609162
:102800005A03852B0E94F30D0F5F1F4F24960F3044
:10281000110579F60E94B80E80914402909145020C
:102820000196817099279093450280934402DF912D
:10283000CF911F910F910895809161028823D9F162
:1028400090915803892F86958F732EE3280F2F734D
:10285000243018F482500C942B112AE3280F2F7384
:10286000233018F486500C94821127E3280F2F731D
:10287000263018F489500C94B21121E3280F2F73DD
:10288000263018F48F500C940F122BE2280F2F7360
:10289000233018F485510C94A112892F8E77803340
:1028A00011F40C941F13863411F40C946F138834B4
:1028B00011F40C94C1130895882319F05198599A72
:1028C00002C0519A59985098589A95E09A95F1F704
:1028D0000000509A589895E09A95F1F700008823E7
:1028E00011F0519A599885E08A95F1F70000089502
:1028F0008BB18C7F8BB95098589A5198599A85E032
:102900008A95F1F7000008958AB18C7F8AB985E035
:102910008A95F1F70000519A599885E08A95F1F768
:102920000000509A589885E08A95F1F700000895C4
:102930005098589A85E08A95F1F700005198599A75
:1029400085E08A95F1F700000895CF93DF93D82FA3
:10295000C8E08D2F80780E945C14DD0FC150C9F74C
:1029600080E00E945C1485E08A95F1F7000085E024
:102970008A95F1F7000080E0DF91CF9108952BB1A7
:10298000342F309523233BB1432B3FB7F894FC0100
:10299000680F791FE617F70789F0819198E04BB926
:1029A000000000C087FF2BB9880F000000C000C0E6
:1029B00000C02BB900C09A9591F7ECCF3FBF0895A6
:1029C000AF92BF92CF92DF92EF92FF920F931F933D
:1029D000CF93DF938C01EB01CFB6D090BC00F8947D
:1029E0008091BC008B7F8093BC000E9478140E9471
:1029F000841484E80E94A514CC0FDD1FCC0FDD1FCA
:102A000078015801AC0EBD1EEA14FB0431F0F70149
:102A100081917F010E94A514F7CF0E949814CFBE28
:102A2000D092BC00579A40E8BE01C801DF91CF9117
:102A30001F910F91FF90EF90DF90CF90BF90AF90DC
:102A40000C94BF1490936702809366020895E091FE
:102A50006602F0916702309721F00190F081E02D3D
:102A6000099480E00895E0916602F0916702309742
:102A700099F020912001222359F020919F0327FFF4
:102A800007C0DC012C9111962C93119725E02C9313
:102A90000280F381E02D09940895E0916602F0919F
:102AA0006702309739F022E0DC012C930480F58135
:102AB000E02D0994089520916402309165028217F7
:102AC000930771F09093650280936402E09166022F
:102AD000F0916702309721F00680F781E02D09948C
:102AE000089520916202309163028217930771F07A
:102AF0009093630280936202E0916602F091670214
:102B0000309721F00084F185E02D0994089585B770
:102B1000806885BF85B7806885BF089508950E9445
:102B200087150C948E1581E008950E9477230E94EA
:102B300052040E940E240C94DB10CF92DF92EF928D
:102B4000FF920F931F93CF93DF93CDB7DEB72B97F1
:102B50000FB6F894DEBF0FBECDBF0E9424050E94C1
:102B60009315811111C08FEF89838A831B820E9484
:102B700080238160782F9D838C8349815A816B816A
:102B80008D810E94811656C089E6C82E82E0D82E1B
:102B900000E010E0E02E802F0E946C05F6014191CC
:102BA0006F01F42EF82631F40F5F1F4F0E30110520
:102BB00089F7D9CF9091240391FF04C08B870E949D
:102BC00072058B8520E030E04F2D50E0922FBA0146
:102BD000022E02C0759567950A94E2F760FF24C043
:102BE0002E83EF8221E030E0690102C0CC0CDD1CB5
:102BF0009A95E2F790E08C219D21892B09F420E041
:102C000028870E9480238160782F9A8789874E8148
:102C10005F8168858A850E948116F801E759FD4F1A
:102C20008081C826C08206C02F5F3F4F2630310505
:102C300069F6BACF0E94A125109168020E9427155B
:102C40001817A1F00E942715809368022B960FB6E3
:102C5000F894DEBF0FBECDBFDF91CF911F910F91D2
:102C6000FF90EF90DF90CF900C9408082B960FB652
:102C7000F894DEBF0FBECDBFDF91CF911F910F91B2
:102C8000FF90EF90DF90CF900895DC0111962C918A
:102C900011978C91682F70E041E050E001C0440F23
:102CA0008A95EAF712968C91129730E0882329F0E2
:102CB000809187028823E9F006C0F901E958FD4FA9
:102CC00090819423B1F086E0829FF001839FF00D04
:102CD0001124E60FF71FEE0FFF1FEF5DFE4F8081FF
:102CE00091818D939C93F901E958FD4F8081482B88
:102CF00006C0F901E958FD4F409580814823408383
:102D00000895CF93DF93CDB7DEB72B970FB6F89426
:102D1000DEBF0FBECDBF942F4F83252F5887698705
:102D20007A878B874A855B85452B21F02F3F09F5F4
:102D30009F3FF9F4DE01119686E0FD0111928A951C
:102D4000E9F785E0FE01379601900D928A95E1F74B
:102D500049815A816B817C818D819E810E94121EE6
:102D60002B960FB6F894DEBF0FBECDBFDF91CF918B
:102D70000895CE0107960E944516DCCFFC018081A4
:102D800091810E94DD2092959F70963041F4809150
:102D9000870291E0892780938702909386020895A5
:102DA000882309F41AC18238C1F40E94271581FDD5
:102DB00014C169E380910F01909110010E94D32208
:102DC0000E943C212FEF81EE94E021508040904002
:102DD000E1F700C0000069E319C08338F9F40E94EC
:102DE000271580FDFAC063E580910F0190911001D5
:102DF0000E94D3220E943C212FEF81EE94E02150CB
:102E000080409040E1F700C0000063E580910F0131
:102E1000909110010E94DE220C943C218438C1F470
:102E20000E94271582FDD9C067E480910F0190911F
:102E300010010E94D3220E943C212FEF81EE94E0EA
:102E4000215080409040E1F700C0000067E4DECFF1
:102E50009CEF980F913A40F4682F80910F01909168
:102E600010010E94D322D8CF90E2980F983050F4EE
:102E7000877091E001C0990F8A95EAF7892F0E9427
:102E80007221CACF9BE5980F933070F4853A29F0F0
:102E9000863A31F083E890E005C081E890E002C016
:102EA00082E890E00C945B1598E5980F973108F054
:102EB0008EC0883A09F445C0893A09F445C08A3A77
:102EC00009F445C08B3A09F445C08C3A09F445C071
:102ED0008B3B09F445C08C3B09F445C08D3A09F49D
:102EE00045C0803B09F445C08E3A09F445C08F3A8D
:102EF00009F445C0813B09F445C0823B09F445C053
:102F0000833B09F445C0843B09F445C0853B09F483
:102F100045C0863B09F445C0873B09F445C0883B62
:102F200009F445C0893B09F445C08D3B09F445C00F
:102F30008E3B09F445C08A3B09F445C080E090E02F
:102F400044C082EE90E041C089EE90E03EC08AEE3F
:102F500090E03BC085EB90E038C086EB90E035C058
:102F600083EB90E032C084EB90E02FC087EB90E0E1
:102F70002CC08CEC90E029C08DEC90E026C083E85A
:102F800091E023C08AE891E020C082E991E01DC071
:102F900084E991E01AC081E292E017C083E292E0F6
:102FA00014C084E292E011C085E292E00EC086E295
:102FB00092E00BC087E292E008C08FE690E005C087
:102FC00080E790E002C08AE292E00C947115803FA5
:102FD00020F00E94A9240C9496250895882309F4D2
:102FE00064C0823879F40E94271581FF5EC069E3CE
:102FF00080910F01909110010E94D3220E943C21E8
:1030000069E310C08338B1F40E94271580FF4DC0DA
:1030100063E580910F01909110010E94D3220E94DC
:103020003C2163E580910F01909110010E94DE2206
:103030000C943C21843879F40E94271582FF35C016
:1030400067E480910F01909110010E94D3220E94A9
:103050003C2167E4E7CF9CEF980F913A10F4682F7A
:10306000E1CF90E2980F983050F4877091E001C062
:10307000990F8A95EAF7892F0E947821D9CF9BE58D
:10308000980F933020F480E090E00C945B1598E565
:10309000980F973120F480E090E00C947115803FF8
:1030A00020F00E9411250C9496250895CF93C82FE7
:1030B0000E94D0168C2FCF910C94EE17882321F00C
:1030C0000E9472210C943C210895882321F00E94D3
:1030D00078210C943C2108958F929F92AF92BF92D9
:1030E000DF92EF92FF920F931F93CF93DF937C01B8
:1030F000D62FC72FFC01058102950F701281111187
:103100000E9492210E943521882379F0112369F0D1
:1031100080E28D0F883048F082E00E941E210E94DC
:10312000352191E0D82ED92601C0D12CAC2EA29405
:103130008FE0A822B12CF501EA58FF4F0C94D8304B
:103140008C2F807FCF70882311F0C295C07F112310
:1031500099F0CC2309F4C8C180E28D0F883010F0BB
:10316000D11104C08C2F0E94722103C08C2F0E94A9
:1031700085210E943C21B8C18D2F0E94EE17CC23DF
:1031800009F42EC280E28D0F883010F0D11104C0F6
:103190008C2F0E94782103C08C2F0E948B210E94CB
:1031A0003C211EC28C2F807FCF70803211F0C295DF
:1031B000C07FDD2319F0D130C9F021C0112371F097
:1031C000002341F0013031F40E94AB218C2B0E948E
:1031D000A52106C20E94AB218C2B3FC1002319F010
:1031E000013009F4FDC10E94A82111C0112321F072
:1031F000023008F0F5C107C00111F2C108C0112367
:1032000021F0011171C18C2F28C101117EC18C2FB9
:103210002AC18C2F86958695837090E0009719F0CF
:10322000019761F0DDC1112321F08D2F9C2F937048
:1032300002C080E090E00E945B15E2C1112321F002
:103240008D2F9C2F937002C080E090E00E9471153A
:10325000D7C11123F9F0D53F51F0D63F71F0D43FDB
:10326000A9F48091990390919A0381600BC0809199
:10327000990390919A03826005C08091990390917F
:103280009A03846090939A03809399038D2F0E94F0
:10329000A9241EC0D53F51F0D63F71F0D43FA9F408
:1032A0008091990390919A038E7F0BC0809199032E
:1032B00090919A038D7F05C08091990390919A0314
:1032C0008B7F90939A03809399038D2F0E941125F1
:1032D0000E94962595C18C2F837009F050C0111162
:1032E0008BC18D2F829586958770880F880F9D2FB3
:1032F0009F70892E912CA12CB12C082E04C0880C13
:10330000991CAA1CBB1C0A94D2F7D4FF14C00FE06E
:1033100010E020E030E0B901A80104C0440F551FBF
:10332000661F771F8A95D2F7CB01BA016095709519
:103330008095909503C060E070E0CB01C695C6957E
:10334000C370D0E0C230D10561F0C330D10581F047
:10335000682979298A299B29219771F00E94571F92
:103360004BC1682979298A299B290E94691F44C178
:103370000E94571FC501B4010E94451F3DC1112382
:1033800019F08C2F817001C08695882309F434C10F
:103390008D2F829586958770880F880F9D2F9F703F
:1033A000892E912CA12CB12C082E04C0880C991CBC
:1033B000AA1CBB1C0A94D2F7D4FF14C00FE010E083
:1033C00020E030E0B901A80104C0440F551F661F7A
:1033D000771F8A95D2F7CB01BA01609570958095D9
:1033E000909503C060E070E0CB01C695C695C370B0
:1033F0004C2F50E04230510569F04330510589F0BF
:10340000682979298A299B294130510571F00E9448
:103410001C20F2C0682979298A299B290E942E2024
:10342000EBC00E941C20C501B4010E940A20E4C028
:103430008D2F90E0FC01E05EF109E531F10508F027
:103440004FC0EA57FF4F0C94D830DF708C2F8F712C
:10345000112331F00E94A31F8D2F0E945E18C0C05F
:103460000E94C41F8D2F0E946518BAC0112339F025
:103470000111B6C08C2F8F710E94E91FB1C00230BC
:1034800008F0AEC0F7CF112339F08C2F8F710E9456
:10349000A31FA6C01123C9F38C2F8F710E94C41FD4
:1034A0009FC0112329F08C2F8F710E948E1F98C00E
:1034B0000E94891F95C0112349F0CF718C2F0E9463
:1034C000A31F63E08C2F0E9415218AC081E00E9417
:1034D0001E21023008F484C082E00E941E2180C0B8
:1034E000112331F0002389F28D2F0E94D01678C06D
:1034F000002391F2D93349F45FEF67EE73E0515046
:1035000060407040E1F700C000008D2F0E94EE1770
:1035100067C04C2F4F706D2FC7010E9432070E9469
:10352000B61E6EC0D23FB1F028F4D03F49F0D13F73
:10353000F9F028C0D43FB9F058F0D53F71F022C05F
:10354000112309F447C09091870281E0892708C0C0
:1035500081E01827109387023DC011113BC081E024
:103560008093870237C0111135C01092870232C094
:10357000112329F080918602882329F329C0002392
:1035800011F328C0809186020023C1F0882341F006
:103590009091870281E089278093870210928602AA
:1035A0008D2F112319F00E94D01614C00E94EE171F
:1035B00086E0F70111928A95E9F70CC0882351F053
:1035C000111108C09091870281E0892780938702BA
:1035D000109286024C2F4F706D2FC7010E94B40AC3
:1035E000F8E0AF16B10441F05CF04AE0A41AB1086B
:1035F00052E0A516B10420F40E9427150E94080885
:10360000DD20E1F00E94112180FD18C0F701128237
:103610000E940B210E94A31FC7010E942A1B0E9427
:103620000B21DF91CF911F910F91FF90EF90DF90D1
:10363000BF90AF909F908F900C94C41FDF91CF915B
:103640001F910F91FF90EF90DF90BF90AF909F90F0
:103650008F9008950F931F93CF93DF93EC01888190
:1036600099812B813C81232BB9F09F3F11F48F3F2F
:1036700099F0CE010E941A08882371F0688179813F
:103680008A810E94E8208C010E9440200E94421FF3
:10369000B801CE010E946C18DF91CF911F910F915C
:1036A00008950E9492210E94A2210E943C210E9422
:1036B0003C260E94962580E090E00E945B1580E009
:1036C00090E00C94711580910F01909110010E946F
:1036D000E9220C94511B0E9482210C94631B0E94CE
:1036E000DD20E92FE295EF70F0E03297EE30F10542
:1036F000B0F4E556FF4F0C94D830803F91F018F4A9
:10370000803E68F40EC0843F51F40BC0803E48F008
:10371000813F29F406C093FB882780F9089580E053
:10372000089581E00895CF93DF9300D000D01F92D9
:10373000CDB7DEB70F900F900F900F900F90DF91E5
:10374000CF910895CF93DF9300D000D000D0CDB7B4
:10375000DEB726960FB6F894DEBF0FBECDBFDF9161
:10376000CF9108951F93CF93DF93C091880216E005
:1037700080918902C81799F0D0E01C9FF0011D9F2D
:10378000F00D1124E657FD4F408151816281738114
:10379000848195810E94A21B2196C770E9CFDF9199
:1037A000CF911F9108954091BA025091BB02609150
:1037B000BC027091BD028091BE029091BF020C9438
:1037C000A21B8091BF0282958F7009F054C0809136
:1037D000BC02882309F44FC080918802A09189021D
:1037E0006091BA027091BB024091BD025091BE023D
:1037F000B6E08A1709F43FC090E041155105C1F1C8
:103800007F3F11F46F3FA1F1B89FF001B99FF00D18
:103810001124E657FD4F218172132AC020816213C3
:1038200027C02281211124C0238134812417350728
:1038300010F421503109241B350B283C3105C0F40C
:103840002091BF022F7020612093BF0226E0289FA5
:10385000F001299FF00D1124E157FD4F80818F70F9
:10386000806180838AEB92E00E942A1B0C94B21B39
:1038700001968770BECF0895CF92DF92EF92FF92AC
:103880000F931F93CF93DF93CDB7DEB762970FB639
:10389000F894DEBF0FBECDBF8C0185E0F801DE01DC
:1038A0001D9601900D928A95E1F7D8014C911196E1
:1038B0005C91119712966C9112971396CD90DC90B3
:1038C00014973091BA027091BB028091BD02909121
:1038D000BE02009709F46BC17F3F19F43F3F09F422
:1038E00066C1E090BC02EE2009F4C0C02091BF0286
:1038F000C816D90628F0F601E81BF90BCF0104C061
:10390000809590958C0D9D1DFF24F394883C910526
:1039100078F0F12C207F09F0C6C07C2DD98AC88AA6
:1039200089890E94931B8AEB92E00E942A1BB1C0F6
:10393000822F807F09F046C0751314C0341312C063
:10394000611110C02F7020612093BF020E94D31B11
:103950008AEB92E00E942A1B8091BF02D801159643
:103960008C932EC0CD2819F15F3F11F44F3FF9F031
:10397000F62E61111CC0809188022091890236E0E8
:10398000821709F45AC090E0389FF001399FF00D7A
:103990001124E657FD4F7181571306C070814713FC
:1039A00003C07281711103C001968770E9CFF62EB2
:1039B000662309F427C18091BF0281608093BF0212
:1039C000F12C20C1751308C0341306C0611104C066
:1039D0008091BF02D801C3C04D875E878D859E85CB
:1039E0006A8B0E946F1B6A898823E1F16623D1F1FB
:1039F0002091BF02822F82958F7090E0029774F021
:103A00008091BA029091BB0298878F831986DB86DA
:103A1000CA862C87CE0107960E942A1B86E0F801F1
:103A2000AAEBB2E001900D928A95E1F70E94E11BAA
:103A30000E94D31BFF24F394E5C04D875E878D85DC
:103A40009E850E94DD20292F22952F7030E02230A4
:103A500031050CF0CBC09F7009F0C5C0805E883086
:103A600008F4D0C0C8010E942A1BE4CFC816D906AA
:103A700008F453C0F601E81BF90BCF01883C91050F
:103A800008F450C0F12C7C2DD98AC88A89890E94FB
:103A9000931BEAEBF2E086E0DF011D928A95E9F7DD
:103AA0000E94D31BAFC0751314C0341312C0611130
:103AB00010C08091BF02F8018583C8010E942A1BB3
:103AC00086E0EAEBF2E0DF011D928A95E9F7FE2C31
:103AD00099C04D875E878D859E856A8B0E946F1B7E
:103AE0006A89882309F4BECF662309F4BBCF2091ED
:103AF000BF02822F82958F7090E002970CF48ECFD8
:103B00008091BA029091BB029A8389831B82DD82E5
:103B1000CC822E83CE0101967FCF809590958C0D1F
:103B20009D1DACCFF62E662309F49CCF75132EC0D5
:103B300034132CC02091BF0220FD1FC0822F82951C
:103B40008F70D9F0D80115962C9315978F3049F0C6
:103B50008F5F982F9295907F822F8F70892B15966B
:103B60008C93C8010E942A1B86E0F801AAEBB2E000
:103B700001900D928A95E1F793CF86E0F801AAEBC8
:103B8000B2E001900D928A95E1F73CC04D875E87C7
:103B90008D859E850E946F1B811140CF8091BF0251
:103BA00081608093BF02C8010E942A1B2BC066233C
:103BB00009F458CF4D875E878D859E850E946F1BC7
:103BC000F82E882309F44ECF86E0F801AAEBB2E084
:103BD00001900D928A95E1F78AEB92E00E94BE1661
:103BE0000E94E11B5DCF811139CF0CC0243031051B
:103BF0000CF038CF9F7009F431CFF8019581907F98
:103C000009F02CCF8F2D62960FB6F894DEBF0FBE51
:103C1000CDBFDF91CF911F910F91FF90EF90DF907B
:103C2000CF9008951F93CF93DF93CDB7DEB72C9736
:103C30000FB6F894DEBF0FBECDBF4F83588769879C
:103C40007A878B879C87CE0107960E943C1C88232D
:103C500069F08F8198852A853B85232BF1F19F3F61
:103C600009F063C08F3F09F060C037C086E0FE01F5
:103C70003796DE01119601900D928A95E1F76F81DA
:103C80007885EA85FB85309741F17F3F11F46F3FDE
:103C900021F12091890230E0C901019687709927AE
:103CA0004091880250E08417950709F447C0698362
:103CB0007A83FD83EC8396E0929FD001939FB00DB1
:103CC0001124A657BD4FFE01319601900D929A9591
:103CD000E1F7809389020E94B21B16E0809188026E
:103CE000909189028917C1F1189FC001112486574C
:103CF0009D4F0E943C1C882379F1E09188021E9F11
:103D0000F0011124E657FD4F40815181628173819A
:103D1000848195810E94A21B8091880290E0019687
:103D20008770992780938802D9CF4F8158856985FC
:103D30007A858B859C850E94A21BCFCF0E946B1B2E
:103D40001092890210928802EAEBF2E086E0DF012D
:103D50001D928A95E9F7C1CF2C960FB6F894DEBF75
:103D60000FBECDBFDF91CF911F910895EF92FF92CB
:103D70000F931F93CF93DF938C01892B09F46CC0B1
:103D8000F12CEE24E394E8012196F8018491843724
:103D900040F4843008F051C0813081F0823019F154
:103DA0005BC0853709F444C0A8F19CE7980F9037B1
:103DB00008F052C08F770E94EE1741C00E5F1F4F70
:103DC000FE01C49180E28C0F883048F4C7708E2DBC
:103DD00001C0880FCA95EAF70E94952114C08C2F64
:103DE0000E94D0162DC00E5F1F4FFE01C49180E2CD
:103DF0008C0F883058F4C7708E2D01C0880FCA957B
:103E0000EAF70E949B210E943C211AC08C2F0E943D
:103E1000EE1716C00E5F1F4FFE01C491CC2381F038
:103E20008FE99FE00197F1F700C00000C150F6CF85
:103E30000E5F1F4FFE01F49003C00E94D0168E014A
:103E40008F2D882309F49FCFEFE9FFE03197F1F739
:103E500000C000008150F5CFDF91CF911F910F91ED
:103E6000FF90EF90089508950C94331F0E94341F23
:103E70006093FB027093FC028093FD029093FE021C
:103E80000C94511B08950C94361F0F931F930091AF
:103E9000FB021091FC022091FD023091FE02602B8A
:103EA000712B822B932B1F910F910C94361F0F9324
:103EB0001F930091FB021091FC022091FD023091B2
:103EC000FE0260237123822393231F910F910C9490
:103ED000361F0F931F930091FB021091FC0220915B
:103EE000FD023091FE0260277127822793271F91E0
:103EF0000F910C94361F0C9459070E947B1F6093FE
:103F0000F7027093F8028093F9029093FA020C94EE
:103F1000511B60E070E0CB010C947D1F0F931F9349
:103F200041E050E060E070E08A019B0104C0000FB6
:103F3000111F221F331F8A95D2F7C901B8011F91A3
:103F40000F910C947D1F0F931F9341E050E060E0B0
:103F500070E004C0440F551F661F771F8A95D2F783
:103F60008091F7029091F802A091F902B091FA02C3
:103F70008A019B01082B192B2A2B3B2BC901B80165
:103F80001F910F910C947D1F0F931F9341E050E000
:103F900060E070E004C0440F551F661F771F8A95CC
:103FA000D2F740955095609570958091F702909169
:103FB000F802A091F902B091FA028A019B0108234C
:103FC00019232A233B23C901B8011F910F910C9497
:103FD0007D1F0F931F9341E050E060E070E004C04C
:103FE000440F551F661F771F8A95D2F78091F702FD
:103FF0009091F802A091F902B091FA028A019B0116
:10400000082719272A273B27C901B8011F910F91BB
:104010000C947D1F0F931F930091F7021091F802EB
:104020002091F9023091FA02602B712B822B932B95
:104030001F910F910C947D1F0F931F930091F70216
:104040001091F8022091F9023091FA026023712355
:10405000822393231F910F910C947D1F0F931F9325
:104060000091F7021091F8022091F9023091FA02C2
:1040700060277127822793271F910F910C947D1F32
:104080000895292F220F920F990F890FA82FA69517
:10409000A695A695877051E001C0550F8A95EAF75D
:1040A00085E0A89FD001112420E030E070E0F90104
:1040B000EA0FFB1FE054FD4F4081CB01022E02C0EE
:1040C000969587950A94E2F78170992781958427C0
:1040D0008523842780832F5F3F4F2530310539F7B3
:1040E0000895292F220F920F990F890F682F669537
:1040F00066956695982F977085E0689FB0011124AA
:1041000040E050E080E0FA01E60FF71FE054FD4F79
:10411000208130E0092E02C0369527950A94E2F7F7
:1041200021703327042E01C0220F0A94EAF7822B54
:104130004F5F5F4F4530510531F70895CF92DF92C1
:10414000EF92FF920F931F93CF93DF938C01C09058
:10415000FB02D090FC02E090FD02F090FE02809104
:10416000F7029091F802A091F902B091FA02C82AE0
:10417000D92AEA2AFB2ACFE1D0E0D701C6010C2ECA
:1041800004C0B695A795979587950A94D2F780FFB6
:1041900006C0B8018C2F0E94CF0A019721F4219705
:1041A00060F780E001C08C2FDF91CF911F910F91BC
:1041B000FF90EF90DF90CF900895CF93DF93EC01C5
:1041C0000E949E20BE010E94CF0ADF91CF910895E8
:1041D0001F93CF93DF93EB0190918502992321F0F8
:1041E000CB010E94DD2013C0882349F0CB010E943F
:1041F0009E20182F682FCE010E94412004C0CB01C1
:104200000E947120182FBE01812F0E94CF0ADF91DA
:10421000CF911F9108958091FF0285958595859591
:1042200008958091FF028770089598E0899F90011A
:104230001124262B2093FF020C94A31F2091FF0230
:10424000809582238093FF02982F977069F430E065
:10425000482F082E000C550B2417350729F085959B
:10426000859585950C94C41F08959091FF029770D1
:1042700081E009F480E00895E0910F01F0911001D0
:10428000809123038083E0910F01F09110019081D0
:1042900080912203892B8083E0910F01F09110011E
:1042A000908180912103892B808380910003882352
:1042B00081F0E0910F01F09110019081892B8083B2
:1042C00080910F01909110010E946E228111109235
:1042D000000380910F01909110010C94331580918F
:1042E0002303089590912303892B8093230308953A
:1042F00080959091230389238093230308958093CD
:104300002303089510922303089590912203892B8B
:1043100080932203089580959091220389238093AE
:104320002203089510922203089590912103892B6E
:104330008093210308958095909121038923809390
:104340002103089510922103089580930003089596
:10435000109200030895809100030895CF92DF9298
:10436000EF92FF926C01EE24FF24C114D104E1040A
:10437000F10421F0C701B60120E101C020E0C72E01
:10438000D82EE92EFF24C114D104E104F10419F060
:10439000285FC701B6016B017C0154E0F694E794F5
:1043A000D794C7945A95D1F7C114D104E104F1040C
:1043B00019F02C5FC701B6016B017C0142E0F69455
:1043C000E794D794C7944A95D1F7C114D104E10476
:1043D000F10419F02E5FC701B601DC01CB01B695DF
:1043E000A79597958795892B8A2B8B2B09F02F5FA3
:1043F000822FFF90EF90DF90CF90089580E090E0C3
:104400000E94F93021E08D3E9E4F09F020E0822F7E
:10441000089582E090E00C94EB3083E090E00C94FF
:10442000EB3084E090E00C94EB30682F84E090E077
:104430000C94FF30AB01BC018FE090E00C94113183
:10444000AB01BC0183E190E00C94113160E070E0BD
:10445000CB010C94202260E070E0CB010E941A2274
:104460000C9426226DEE7EEF80E090E00E941D31DC
:1044700060E082E090E00E94FF3060E083E090E046
:104480000E94FF301092FB021092FC021092FD027B
:104490001092FE0260E084E090E00E94FF3060E055
:1044A00085E090E00E94FF3060E086E090E00E94AE
:1044B000FF306FEF87E090E00E94FF3040E050E077
:1044C000BA0188E090E00E94113160E08DE090E058
:1044D0000E94FF300C942B220C943222FC01329665
:1044E00080912001882331F080919F0387FF02C0D3
:1044F0009EE101C096E080E0915028F021912223B6
:10450000D9F38F5FF9CF08959C01FC0132969FEF9C
:1045100080E04191461789F09F3F19F4411101C095
:10452000982F8F5F8630A9F79F3F39F0F901E90F87
:10453000F11D97FDFA95628308950895FC01329666
:1045400008962081261301C010823196E817F907DA
:10455000C1F70895262F2695269526952E3168F4C5
:10456000FC01E20FF11D677021E030E001C0220F75
:104570006A95EAF78281282B22830895262F2695B3
:10458000269526952E3170F4FC01E20FF11D67701F
:1045900021E030E001C0220F6A95EAF72095828180
:1045A00028232283089520912001222329F020919D
:1045B0009F0327FD0C94AA220C94842220912001B1
:1045C000222329F020919F0327FD0C94BE220C94F6
:1045D0009E2220912001FC013296222331F080910D
:1045E0009F0387FF02C08EE101C086E0DF011D92BC
:1045F0008A95E9F7089508950C94FB220E94FC2205
:104600008091A503843049F11092250320E488E1CC
:1046100090E00FB6F894A895809360000FBE2093A9
:10462000600080E00E9408080E94FC2283B7817F1E
:10463000846083BF83B7816083BF7894889583B794
:104640008E7F83BF0FB6F894A89580916000886133
:1046500080936000109260000FBE08950895CF937C
:104660000E947B040E9424050E942E23C0E08C2F10
:104670000E946C05811104C0CF5FCE30C1F701C02C
:1046800081E0CF91089508950C9443230E946B1B01
:104690000E9427150E9408080C9444231F920F9231
:1046A0000FB60F9211248F939F93AF93BF93809176
:1046B0002503811113C080919B0390919C03A091CD
:1046C0009D03B0919E034196A11DB11D80939B0354
:1046D00090939C03A0939D03B0939E03BF91AF91D1
:1046E0009F918F910F900FBE0F901F90189582E0B1
:1046F00084BD93E095BD9AEF97BD80936E000895B9
:104700002FB7F89480919B0390919C03A0919D03F7
:10471000B0919E032FBF0895CF92DF92EF92FF9248
:104720000F931F932FB7F89440919B0350919C03D4
:1047300060919D0370919E032FBF6A017B01EE245F
:10474000FF248C0120E030E0C016D106E206F3061B
:1047500010F4415051099A01281B390BC9011F91CE
:104760000F91FF90EF90DF90CF90089578941F9273
:104770000F920FB60F9211248F939F93AF93BF9315
:1047800080919B0390919C03A0919D03B0919E0307
:104790000196A11DB11D80939B0390939C03A09350
:1047A0009D03B0939E03BF91AF919F918F910F9006
:1047B0000FBE0F901F901895F89481E08093E00051
:1047C00080E28093D800E9ECF0E010828FE19EE473
:1047D0000197F1F700C000001DBA109268001CBCE0
:1047E00010BE1FBA10927A0010926E0010926F00E5
:1047F00010927100109272001082ECEBF0E01082C7
:1048000014B817B81AB81DB810BA108215B818B86D
:104810001BB81EB811BA0C94003F08950E94FE21E7
:10482000811102C00E946C220E94092280932403FD
:104830000E94112290E09093A00380939F030E9416
:104840000D22682F70E080E090E00C94431F80916F
:10485000290380FF0BC06091140185E0689FB001BF
:10486000112475956795759567952BC081FF09C0D3
:104870006091140185E0689FB001112475956795DA
:1048800020C082FF07C06091140185E0689FB001DD
:10489000112417C090912A039923D1F0609113013C
:1048A000961788F72091140185E0289F9001112424
:1048B000929FA001939F500D112470E0CA010E94A5
:1048C000C4306038710540F46115710539F002C0DB
:1048D00065E070E0862F08958FE7089581E00895E0
:1048E0008091290380FF08C06091120170E07595E6
:1048F00067957595679521C081FF06C0609112018B
:1049000070E07595679519C082FF04C0609112012F
:1049100070E010C090912A039923C1F060911101B9
:104920009617A0F780911201899FC001112470E0B1
:104930000E94C4306038710528F46115710521F0BA
:10494000862F08958FE7089581E0089561E070E073
:10495000F4CF803F21F40E942724819504C0813F39
:1049600029F40E94272480932E030895823F21F486
:104970000E942724819504C0833F29F40E942724A4
:1049800080932D030895893F19F40E94702405C077
:104990008A3F31F40E947024819580932F030895FB
:1049A0008B3F21F40E947024819504C08C3F29F430
:1049B0000E947024809330030895843F21F48091F5
:1049C0002C03816017C0853F21F480912C03826005
:1049D00011C0863F21F480912C0384600BC0873F77
:1049E00021F480912C03886005C0883F31F48091C8
:1049F0002C03806180932C0308958D3F21F48091D6
:104A0000290381600BC08E3F21F4809129038260CD
:104A100005C08F3F29F48091290384608093290386
:104A20000895803F39F480912E0387FF6CC0109267
:104A30002E0369C0813F29F480912E031816BCF320
:104A400062C090912D03823F29F497FF5CC01092C1
:104A50002D0359C0833F19F41916CCF354C0893F74
:104A600041F480912F0318160CF04DC010922F03C3
:104A70004AC08A3F29F480912F0387FF44C0F6CFB4
:104A80008B3F39F48091300387FF3DC01092300393
:104A90003AC08C3F29F4809130031816BCF333C020
:104AA000843F21F480912C038E7F17C0853F21F431
:104AB00080912C038D7F11C0863F21F480912C03BF
:104AC0008B7F0BC0873F21F480912C03877F05C02B
:104AD000883F31F480912C038F7E80932C0313C088
:104AE0008D3F21F4809129038E7F0BC08E3F21F4EE
:104AF000809129038D7F05C08F3F29F48091290380
:104B00008B7F8093290380912D0381110EC08091AA
:104B10002E0381110AC080912F03811106C080915C
:104B20003003811102C010922A0308958BE293E0B2
:104B30000E944D150E9480239093270380932603A3
:104B400008951F93CF93DF938091260390912703BD
:104B50000E948C23AC0190912A03992321F020918B
:104B6000150130E006C0209128038AE0289F9001BB
:104B700011244217530708F47BC080912D03C09184
:104B80002E03D0912F0310913003811107C0C11162
:104B90006BC0D11169C0111167C06AC09F3F19F085
:104BA0009F5F90932A03181624F40E942724809371
:104BB0002D0380912D0387FF05C00E942724819536
:104BC00080932D031C1624F40E94272480932E0327
:104BD00080912E0387FF05C00E9427248195809332
:104BE0002E0330912D033323E1F020912E03222355
:104BF000C1F045EB3403C0011124892F990F990BA3
:104C0000009709F481E080932D0335EB2303C00165
:104C10001124892F990F990B009709F481E0809353
:104C20002E031D1624F40E94702480932F0380917C
:104C30002F0387FF05C00E947024819580932F0366
:104C4000111624F40E947024809330038091300365
:104C500087FF05C00E947024819580933003DF9107
:104C6000CF911F910C9496259F3F09F099CFA1CF2A
:104C7000DF91CF911F910895EBE2F3E086E0DF0131
:104C80001D928A95E9F710922A031092290308953C
:104C90008091510308950F931F93CF93DF9300D01A
:104CA0001F92CDB7DEB78C010E94AE28823011F082
:104CB000843021F584E089831B830A8382E080931A
:104CC000E9008FEF9091E800815095FD06C095EDC9
:104CD0009A95F1F700008111F5CF8091E80085FFEA
:104CE0000DC040E050E063E070E0CE0101960E940C
:104CF000CB288091E8008E778093E8000F900F908A
:104D00000F90DF91CF911F910F910895CF93DF9373
:104D100000D01F92CDB7DEB72091A503243031F526
:104D200023E02983805891099B838A8382E08093C2
:104D3000E9008FEF9091E800815095FD06C095ED58
:104D40009A95F1F700008111F5CF8091E80085FF79
:104D50000DC040E050E063E070E0CE0101960E949B
:104D6000CB288091E8008E778093E8000F900F9019
:104D70000F90DF91CF910895CF93DF93EC010E94C4
:104D8000AE28823011F08430F9F482E08093E9009B
:104D90009FEF8091E800915085FD06C085ED8A95D2
:104DA000F1F700009111F5CF8091E80085FF0CC06C
:104DB00040E050E066E070E0CE010E94CB28809198
:104DC000E8008E778093E800DF91CF910895CF932C
:104DD000DF93EC010E94AE28823011F08430D9F5C7
:104DE00080912001882339F080919F0387FF03C0C1
:104DF00060E282E002C068E081E08093E9008FEF2A
:104E00009091E800815095FD06C095ED9A95F1F7D7
:104E100000008111F5CF8091E80085FF1CC08091D2
:104E20002001811105C040E050E068E070E003C05F
:104E300070E040E050E0CE010E94CB288091E80075
:104E40008E778093E80080E2FE01A1E3B3E0019059
:104E50000D928A95E1F7DF91CF9108958091A40397
:104E6000811109C00E94602A0E94BD2A8091E2003F
:104E700084608093E20008951092A4030895089539
:104E800008950C94462342E061EC81E00E94DA2907
:104E900042E261EC82E00C94DA298091A70383302E
:104EA00009F453C030F4813071F0823009F48CC0C1
:104EB00008958A3009F478C08B3009F45EC08930D7
:104EC00009F09AC020C08091A603813A09F094C0ED
:104ED0008091E800877F8093E8008091AA039091F9
:104EE000AB03892B21F460E281E393E003C060E02F
:104EF00080E090E070E00E9416298091E8008B77B6
:104F00008093E80008958091A603813209F074C06F
:104F10008091AA039091AB03029708F06DC0809135
:104F2000E800877F8093E8008091E80082FD05C05B
:104F30008091A5038111F8CF5FC08091F10080932B
:104F400051038091E8008B7753C08091A603813A8A
:104F500009F052C08091AA039091AB03892B09F00C
:104F60004BC08091E800877F8093E8008091E80043
:104F700080FFFCCF8091200136C08091A603813252
:104F8000D9F58091AA039091AB03892BA9F5809163
:104F9000E800877F8093E8000E940F2A8091A80391
:104FA000809320010C946B1B8091A603813221F524
:104FB0008091E800877F8093E8000E940F2A80910B
:104FC000A9038093520308958091A603813AA1F426
:104FD0008091E800877F8093E8008091E80080FF5F
:104FE000FCCF809152038093F1008091E8008E778E
:104FF0008093E8000C940F2A089584B7877F84BFBC
:105000000FB6F894A8958091600088618093600045
:10501000109260000FBE80E88093610010926100E2
:105020000E948F150E94602A0E94BD2A8091E20092
:1050300084608093E20078940E944C2D0E94951524
:1050400086E191E00E9422158091A503853069F4E4
:105050000E94FE228091A3038823B1F30E942F2394
:10506000882391F30E94B528EFCF0E949D150E94DE
:105070001C14EACF0C943C28292F33272330310508
:10508000C9F064F42130310581F02230310509F096
:105090004CC08BE390E028E336E04BC02132310571
:1050A00021F12232310589F140C082E190E023E70D
:1050B00036E03FC099278130910571F02CF4892B9F
:1050C000A1F5E4E3F6E00DC08230910541F00397CD
:1050D00061F5EEEFF5E005C0ECE1F6E002C0E4E0DA
:1050E000F6E0849190E09F0124C06115710541F0C4
:1050F00061307105D1F489E090E023E636E019C013
:1051000089E090E02AE436E014C06115710541F0B1
:105110006130710551F480EC90E025E836E009C07B
:1051200080E490E025E437E004C080E090E020E0F7
:1051300030E0FA013183208308950895CF93C82F7A
:105140000E949D28C0935303CF9108958091A50399
:10515000843011F081E0089582E008958091530336
:10516000811102C00C94A628089580E189BD82E1D6
:1051700089BD09B400FEFDCF8091D8008F7D80935A
:10518000D8008091E00082608093E0008091E00090
:1051900081FDFCCF0895CF92DF92EF92FF920F93A3
:1051A0001F93CF93DF93EC018B016A010E942E2A9B
:1051B000811133C0C114D10439F0F601808191818D
:1051C000081B190BC80FD91FE12CF12C0115110573
:1051D00019F18091E80085FD16C08091E8008E7776
:1051E0008093E800C114D10449F0F60180819181D7
:1051F000E80EF91EF182E08285E00FC00E942E2A9F
:10520000882321F30AC089918093F100015011098C
:10521000FFEFEF1AFF0ADACF80E0DF91CF911F9105
:105220000F91FF90EF90DF90CF9008952091AC0305
:105230003091AD032617370748F06115710539F431
:105240002091E8002E772093E80001C0B90140E0EA
:1052500061157105A9F12091A503222309F443C02A
:10526000253009F442C02091E80023FD40C0209180
:10527000E80022FD32C02091E80020FFE9CF4091F4
:10528000F3002091F20030E0342BFC01CF016115D6
:10529000710559F02830310540F481918093F10077
:1052A000615071092F5F3F4FF1CF41E02830310548
:1052B00009F040E02091E8002E772093E800C8CF65
:1052C0004111C9CF0AC08091A503882361F08530C0
:1052D00061F08091E80083FD0AC08091E80082FFC0
:1052E000F2CF80E0089582E0089583E0089581E0A0
:1052F00008952091AC033091AD032617370748F08D
:105300006115710539F42091E8002E772093E800AB
:1053100001C0B901FC0120E06115710591F1809196
:10532000A503882309F440C0853009F43FC080916B
:10533000E80083FD3DC08091E80082FD2FC0809190
:10534000E80080FFE9CF2091F3008091F20090E027
:10535000922B6115710559F08830910540F4249124
:105360002093F1003196615071090196F2CF21E04E
:10537000089709F020E08091E8008E778093E8009C
:10538000CBCF2111CCCF0AC08091A503882361F037
:10539000853061F08091E80083FD0AC08091E800CB
:1053A00082FFF2CF80E0089582E0089583E00895BF
:1053B00081E00895982F973058F59093E900981759
:1053C00039F07091EC002091ED005091F00003C095
:1053D000242F762F50E021FF19C03091EB003E7F43
:1053E0003093EB003091ED003D7F3093ED00309134
:1053F000EB0031603093EB007093EC002093ED00F4
:105400005093F0002091EE0027FF07C09F5FD3CF9D
:105410008F708093E90081E0089580E00895809185
:10542000A60387FF11C08091E80082FD05C080912E
:10543000A5038111F8CF11C08091E8008B770BC0D4
:105440008091A503882349F08091E80080FFF8CF80
:105450008091E8008E778093E80008952091E40021
:105460003091E50095E64091EC00842F817040FF7B
:1054700022C08091E80080FD1CC08091A503882394
:1054800091F0853091F08091EB0085FD10C0409146
:10549000E4005091E5004217530729F39A01915017
:1054A00011F784E0089582E0089583E0089581E093
:1054B000089580E008954091E80042FFDECF08950E
:1054C0000E94CE2A0E94D62AE0EEF0E08081816020
:1054D0008083E8EDF0E080818F77808319BCA7EDB1
:1054E000B0E08C918E7F8C9380818F7E8083109230
:1054F000A40308950F931F93CF93DF930E94CE2AA6
:105500000E94D62AC8EDD0E088818F778883888171
:105510008068888388818F7D888319BC1092A50359
:105520001092A1031092A3031092A20300EE10E0C8
:10553000F80180818B7F808388818160888342E04D
:1055400060E080E00E94DA29E1EEF0E080818E7F69
:105550008083E2EEF0E080818160808380818860DA
:105560008083F80180818E7F808388818061888339
:10557000DF91CF911F910F910895E8EDF0E08081C8
:105580008F7E8083E7EDF0E080818160808384E01E
:1055900082BF81E08093A4030C947A2AE8EDF0E0C6
:1055A00080818E7F80831092E20008951092DA004D
:1055B0001092E10008951F920F920FB60F921124DE
:1055C0002F933F934F935F936F937F938F939F930B
:1055D000AF93BF93EF93FF938091E10082FF0BC0E5
:1055E0008091E20082FF07C08091E1008B7F809371
:1055F000E1000E944B2D8091DA0080FF1FC0809156
:10560000D80080FF1BC08091DA008E7F8093DA0083
:105610008091D90080FF0DC080E189BD82E189BD04
:1056200009B400FEFDCF81E08093A5030E942E27E0
:1056300005C019BC1092A5030E943C278091E1008F
:1056400080FF19C08091E20080FF15C08091E200C8
:105650008E7F8093E2008091E20080618093E2007F
:105660008091D80080628093D80019BC85E0809337
:10567000A5030E9440278091E10084FF30C0809103
:10568000E20084FF2CC080E189BD82E189BD09B4BC
:1056900000FEFDCF8091D8008F7D8093D80080914F
:1056A000E1008F7E8093E1008091E2008F7E809305
:1056B000E2008091E20081608093E2008091A1038A
:1056C000882311F084E007C08091E30087FD02C0C9
:1056D00081E001C083E08093A5030E94412780916F
:1056E000E10083FF29C08091E20083FF25C0809103
:1056F000E100877F8093E10082E08093A503109210
:10570000A1038091E1008E7F8093E1008091E2000F
:105710008E7F8093E2008091E20080618093E200BE
:1057200042E060E080E00E94DA298091F000886029
:105730008093F0000E943F27FF91EF91BF91AF91BE
:105740009F918F917F916F915F914F913F912F9199
:105750000F900FBE0F901F9018951F920F920FB6CB
:105760000F9211242F933F934F935F936F937F93E7
:105770008F939F93AF93BF93CF93DF93EF93FF9359
:10578000C091E900CF708091EC00D82FD17080FDDE
:10579000D0E81092E9008091F000877F8093F000BC
:1057A00078940E94F12B1092E9008091F0008860BB
:1057B0008093F000CD2BCF70C093E900FF91EF9163
:1057C000DF91CF91BF91AF919F918F917F916F9119
:1057D0005F914F913F912F910F900FBE0F901F90AF
:1057E00018951F93CF93DF93CDB7DEB7AA970FB667
:1057F000F894DEBF0FBECDBFE6EAF3E088E08E0F7F
:105800009091F10091938E13FBCF0E944D278091D0
:10581000E80083FF28C18091A6039091A703492F38
:1058200050E04A30510508F01EC1FA01E755FF4F1C
:105830000C94D830803821F0823809F014C108C0A7
:105840008091A2039091A303992389F082600FC0F5
:105850008091AA038F70873008F005C18093E9001A
:105860008091EB0085FB882780F91092E9009091E8
:10587000E800977F9093E8008093F1001092F10088
:10588000D0C0282F2D7F09F0EEC0882319F0823078
:1058900061F0E9C08091A803813009F0E4C0933041
:1058A00009F080E08093A3032EC08091A8038111AA
:1058B0002AC08091AA038F702FEF280F263008F09E
:1058C000D2C08093E9002091EB0020FF1CC09330F0
:1058D00021F48091EB00806214C09091EB00906104
:1058E0009093EB0021E030E0A90102C0440F551F66
:1058F0008A95E2F74093EA001092EA008091EB006B
:1059000088608093EB001092E9008091E800877F27
:105910008093E8000E940F2AA6C08111A4C01091B4
:10592000A8031F778091E3008078812B8093E300A8
:105930008091E800877F8093E8000E940F2A809181
:10594000E80080FFFCCF8091E30080688093E30053
:10595000111102C082E001C083E08093A50383C0DF
:105960008058823008F07FC08091A8039091A903ED
:105970008C3D53E0950779F583E08A838AE2898339
:105980004FB7F894DE01139620E03EE051E2E32F9A
:10599000F0E050935700E49120FF03C0E295EF70D0
:1059A0003F5FEF708E2F90E0EA3010F0C79601C095
:1059B000C0968D939D932F5F243149F74FBF8091FF
:1059C000E800877F8093E8006AE270E0CE010196EC
:1059D0000E94162915C06091AA037091AB03AE0115
:1059E0004F5F5F4F0E943A28BC01892BE1F19091F3
:1059F000E800977F9093E80089819A810E94792935
:105A00008091E8008B778093E8002DC0803859F5AD
:105A10008091E800877F8093E8008091A1038093C4
:105A2000F1008091E8008E7773CF81111CC09091B6
:105A3000A8039230C0F48091E800877F8093E8004B
:105A40009093A1030E940F2A8091A103811106C0A7
:105A50008091E30087FD02C081E001C084E0809373
:105A6000A5030E9443278091E80083FF0AC080912C
:105A7000E800877F8093E8008091EB00806280934C
:105A8000EB00AA960FB6F894DEBF0FBECDBFDF9134
:105A9000CF911F9108950895CF938091A5038823F6
:105AA000A1F0C091E900CF709091EC00892F817036
:105AB00090FD80E8C82B1092E9008091E80083FDFA
:105AC0000E94F12BCF70C093E900CF9108955058F8
:105AD000BB27AA270E947F2D0C942A2F0E941C2FDF
