:100000000C942F040C944C040C944C040C944C044D
:100010000C944C040C944C040C944C040C944C0420
:100020000C944C040C944C040C9419140C945B1315
:100030000C94D0180C944C040C944C040C944C0468
:100040000C944C040C944C040C944C040C944C04F0
:100050000C944C040C948F180C944C040C944C0489
:100060000C944C040C944C040C944C040C944C04D0
:100070000C944C040C944C040C944C040C944C04C0
:100080000C944C040C944C040C944C040C944C04B0
:100090000C944C040C944C040C944C040C944C04A0
:1000A0000C944C040C944C040C944C04BA08BA08FC
:1000B000ED08ED08550973097D0A7D0A7E09F209EC
:1000C000030A030A3D0F4E0F180FA70F970FA50F36
:1000D000A50FA30FA50F6E1195114313951143138F
:1000E000E11104124313F9120913CB1BD31BCE1BCE
:1000F000D11BD61BDB1BD91B551D581D5B1D5E1D5F
:10010000611D641D671D000000000000000000006C
:1001100000000000000000000000000000000000DF
:10012000000000000000000000007E0F00D4FFFF70
:10013000FFC70000007800000000000000002A2B2C
:100140002800000000000000000000000000000087
:100150000029000000002C1E3420212224342627F0
:10016000252E362D3738271E1F2021222324252611
:100170003333362E37381F0405060708090A0B0CDF
:100180000D0E0F101112131415161718191A1B1C27
:100190001D2F3130232D350405060708090A0B0CE5
:1001A0000D0E0F101112131415161718191A1B1C07
:1001B0001D2F3130354C1E0F0500047F3F1F643268
:1001C00014643214783C1E1E140A0505010980A12E
:1001D00001850319012AB700150126B7009501759D
:1001E000108100C0050C0901A101850419012AA094
:1001F00002150126A002950175108100C0050109B4
:1002000006A1018506050719E029E71500250195D6
:1002100008750181020507190029EF1500250195D0
:10022000F0750181020508190129059505750191EF
:1002300002950175039101C005010902A10109019F
:10024000A100050919012908150025019508750166
:1002500081020501093009311581257F9502750854
:10026000810609381581257F950175088106050CE1
:100270000A38021581257F950175088106C0C006E0
:1002800060FF0961A1010962150026FF0095207534
:100290000881020963150026FF0095207508910268
:1002A000C005010906A101050719E029E715002588
:1002B00001950875018102950175088101050719ED
:1002C0000029FF150026FF00950675088100050826
:1002D0001901290595057501910295017503910193
:1002E000C009027400040100A0FA0904000001031F
:1002F00001010009211101000122400007058103CD
:100300000800010904010002030000000921110195
:1003100000012222000705830320000107050403D2
:10032000200001090402000103010200092111015A
:1003300000012247000705820308000109040300A9
:100340000103000000092111010001226D000705D1
:100350008503200001120100020000000897327599
:100360004901000102000122034500720067006F8D
:100370000044006F007800200045005A0020005320
:1003800000680069006E006500000028035A0053F1
:10039000004100200054006500630068006E006F9B
:1003A000006C006F006700790020004C0061006263
:1003B0000073000000040309042223252628292AAB
:1003C0002C2D2F3032333536383A3B3D3E404243B8
:1003D0004547494A4C4E5051535557595A5C5E60F7
:1003E00062646668696B6D6F71737577797B7D7F09
:1003F00081838587898A8C8E90929496989A9C9E08
:100400009FA1A3A5A7A8AAACAEAFB1B3B4B6B8B923
:10041000BBBCBEBFC1C2C3C5C6C7C9CACBCCCDCE8B
:10042000D0D1D2D2D3D4D5D6D7D7D8D9D9DADADB6E
:10043000DBDBDCDCDCDCDCDDDDDDDDDCDCDCDCDCFA
:10044000DBDBDBDADAD9D9D8D7D7D6D5D4D3D2D239
:10045000D1D0CECDCCCBCAC9C7C6C5C3C2C1BFBE21
:10046000BCBBB9B8B6B4B3B1AFAEACAAA8A7A5A38C
:10047000A19F9E9C9A98969492908E8C8A8987854B
:1004800083817F7D7B79777573716F6D6B6968662A
:100490006462605E5C5A5957555351504E4C4A49FC
:1004A00047454342403E3D3B3A3836353332302FA4
:1004B0002D2C2A29282625232200010101010101D2
:1004C000010101020202020202020202030303030B
:1004D00003030303040404040404040505050505DB
:1004E0000606060606070707070708080808090999
:1004F00009090A0A0A0B0B0B0C0C0C0D0D0D0E0E44
:100500000E0F0F0F101011111112121313141415D6
:100510001516161717181819191A1A1B1B1C1D1D4A
:100520001E1E1F20202122222324242526262728A0
:1005300029292A2B2C2D2D2E2F30313232333435D0
:10054000363738393A3B3C3D3E3F404142434445D3
:10055000464748494A4C4D4E4F50515354555658B2
:10056000595A5B5D5E5F616264656668696B6C6D5C
:100570006F7072737577787A7B7D7E8082838587D2
:10058000888A8C8E8F91939596989A9C9EA0A2A310
:10059000A5A7A9ABADAFB1B3B5B7BABCBEC0C2C415
:1005A000C6C9CBCDCFD1D4D6D8DBDDDFE2E4E7E9D5
:1005B000EBEEF0F3F5F8FAFDFFFFAA7F55402E00B1
:1005C0002B004C00E100354100001E001400040027
:1005D0001D6134004D001F001A0016001B00E200D0
:1005E0002A00200008000700060050002C0021000F
:1005F0001500090019004F004A00220017000A00E8
:10060000050000006564500001530000000F000069
:10061000E3004F000353000000070000E200230046
:100620001C000B00110000002961240018000D00BF
:10063000100052004B0025000C000E003600510047
:100640002800260012000F0037002F002B00270083
:1006500013003342387130004E002D0031003468F1
:10066000E500015100002900010001000100010026
:1006700000003A001E0220022202010001003B009D
:100680001F02210223020100CA5C3C002F02260245
:100690002F000100CB5C3D0030022702300001003A
:1006A00001003E003102350035020000C45C01004B
:1006B0000100000001000000010001000100000035
:1006C00001000000C35C3F00520051002402000002
:1006D000B55D40005F005C00590001000100410071
:1006E00060005D005A003700C65C420061005E0099
:1006F0005B002700C75C43002502570031002E0035
:10070000010044004500010001000100000001005B
:100710000100010001000100000001000100EF00E4
:100720000100010001000100ED00EE0001000100E8
:10073000010001000100F0000100F10001000100D2
:10074000010001000100F2000100010001000100B0
:100750000100000001000100010000000100000094
:100760000100010001000000010000000100010083
:100770000100010001000000010001000100010072
:10078000A800A9000100010001000100AC00AA00BE
:10079000B600010001000100AB00260201000100CB
:1007A0000100010001002702010001000100AE006C
:1007B000010001000000010001000100E100010052
:1007C00000000100010034000100010001000100EF
:1007D0000100010001000100010001000100010011
:1007E0000100010001000100010001000100010001
:1007F00001000100010001000100000001000100F2
:1008000001000000010000000100010001000000E3
:1008100001000000010001000100010001000000D2
:10082000010001002F000100010001000100010092
:10083000010001000100010001000100330001007E
:1008400001000100010001000100010001000100A0
:10085000010001000100010001000100000011245D
:100860001FBECFEFDAE0DEBFCDBF11E0A0E0B1E008
:10087000E4E0F2E602C005900D92AC3AB107D9F778
:1008800023E0ACEAB1E001C01D92AF3AB207E1F754
:100890000E94D40A0C9400310C940000A5E2B0E050
:1008A000E4E5F4E00C94732BFC01808191812381B9
:1008B0003481232B31F09F3F31F491E08F3F19F4C5
:1008C00003C091E001C090E090FD6AC67F0185E021
:1008D000DE01919601900D928A95E1F7D70112966B
:1008E0002C9189A19AA1222349F00E940722182F56
:1008F000682F89A19AA10E94352403C00E94012477
:10090000182F69A17AA1812F0E9423268C01809142
:100910002902882309F44FC0F701828181111CC686
:10092000E091AE01E330A0F481E08E0F8093AE0140
:10093000F0E0EE0FFF1FE251FE4FD7018D919C9129
:100940009183808382E08983CE0101960E944D15B8
:10095000BFEFE3EDF0E3B150E040F040E1F700C05D
:1009600000008091AE01833009F0F6C51092AE010F
:10097000E4EFF1E0AEEEB1E08AEF91E03181119663
:100980002C911197321330C030812C9132132CC02E
:10099000329612968E179F0789F784E0898381E04B
:1009A00080932A028EEF8A8310922902CE0101964B
:1009B0000E944D15D1C580912A028823D1F0D7011C
:1009C00012968C91882311F086E001C087E089831C
:1009D000F70180818A8381818B838EEF8C83CE01A6
:1009E00001960E944D1505C083E0898310922A026A
:1009F000D9CF033BBDE51B07E9F5D70112968C91D2
:100A0000882309F452C09091B20181E0890F877068
:100A1000987F853020F4892B8093B20102C0909397
:100A2000B2018091B2018770BFEF8B9FC00111248A
:100A300095958795959587959927909389008093AB
:100A4000880090938B0080938A0090938D00809310
:100A50008C004091B2015091B3016091B40170914A
:100A6000B5018FE090E00E944C2C8091C5010E945E
:100A7000B41B1BC0043BEDE51E0759F0053BFDE52B
:100A80001F0799F4D70112968C91882309F464C545
:100A900057C0F7018281882309F45EC59091AF01A8
:100AA00081E089278093AF0157C50E94C4184C018B
:100AB000F7018281882309F45FC180911C0182FFC4
:100AC00007C047EE51E0B40180E090E00E947D193C
:100AD0000931FCE51F0709F46CC0D8F10B319CE526
:100AE000190709F044C080911C01816080931C01AA
:100AF000C80190568115B0E29B0708F038C11092EA
:100B0000E0021092DF02D70112969C91911177C2F8
:100B10008091FB0182720D3CBCE51B0709F451C2B8
:100B200008F4B9C1023D2CE5120709F457C208F0D8
:100B300004C20F3C8CE5180709F44AC208F0F0C162
:100B400081E004C081608093B70286950E94AB214A
:100B500003C507313CE5130711F108318CE518078F
:100B600039F680911A0190911B0105971DC00B3138
:100B7000ACE51A0748F00C31BCE51B0709F0B8CF0B
:100B800080911C018E7F06C080911C01982F90954A
:100B900090FB80F980931C010E945A19A9CF809183
:100BA0001A0190911B01059690931B0180931A01E5
:100BB0009FCF80911B018F9380911A018F938BE2BD
:100BC00091E09F938F931F9288E08F93FE0131965F
:100BD0006F01FF93EF930E943F2E0FB6F894DEBF94
:100BE0000FBECDBF4AE0342ED6012C91222309F44A
:100BF0007FCF213009F059C011968C91813081F45A
:100C00005601B2E0AB0EB11CF6018281893319F4B2
:100C100060E570E002C060E070E00E94C6250BC095
:100C2000823059F45601F2E0AF0EB11CD601129693
:100C30008C910E942125650196C0833049F45601AC
:100C4000B2E0AB0EB11CF60182810E94EC24F3CF1E
:100C5000843021F0FFEFCF1ADF0A85C0D60112964B
:100C60002C91F60132966F0180E090E030E0205345
:100C700031092A30310570F4389EA001399E500D9B
:100C80001124C901840F951FFFEFCF1ADF0AD60187
:100C90002C91ECCF009709F466C0EFE9FFE03197A3
:100CA000F1F700C000000197F5CFE22FF0E0EA5C19
:100CB000FE4F2490822F86958695869590E0FC01C4
:100CC000EA5DFE4F44902770512C022E02C05594CD
:100CD00047940A94E2F7F1E04F225524FC01EA5EC2
:100CE000FE4F6490712C022E02C0759467940A9492
:100CF000E2F731E063227724FC01EA5FFE4FA49023
:100D0000B12C02C0B594A7942A95E2F781E0A822FD
:100D1000BB244114510419F081EE0E942125611475
:100D2000710409F430C486EE0E94212599E3291646
:100D300009F423C460E070E0822D0E94C62561148E
:100D4000710419F086EE0E94EC244114510419F04C
:100D500081EE0E94EC24A114B10429F060E070E05F
:100D60008CE20E94C625AFEFCA1ADA0A3DCF905E28
:100D700081159041E8F4C3CE013E110521F4809124
:100D80001C018F7E06C0053E110531F480911C01C7
:100D90008F7D80931C010CC0C80190568115F0E234
:100DA0009F0708F4F9C3905E8115904108F4F4C3DD
:100DB00080911C0180FFA7CED70112962C91C8010B
:100DC0004E970A9708F064C0222309F45BC0809113
:100DD000A0039091FB01982B292F2D7F49F11092B0
:100DE000E0021092DF02F80124E0F695E7952A95DB
:100DF000E1F7EE0FFF1FE354FD4F98012F703327EB
:100E000081E090E002C0880F991F2A95E2F7809553
:100E10009095208131818223932391838083C8011F
:100E20000E949A1B8091A0038D7F0E94542826C0A7
:100E300026E0F701A7EEB1E001900D922A95E1F7C7
:100E40001092E9011092EB011092EA0196959170CF
:100E500020911C0190FB21F920931C018D7F0E94A1
:100E600054281093E0020093DF029092DE028092F9
:100E7000DD0280911C01846080931C0182E00E944D
:100E8000BA286AC3A701B401C8010E947D1964C3CE
:100E9000211135CE81C3073CFCE51F0709F47DC055
:100EA000D8F4043C3CE5130709F46DC030F4033C6E
:100EB000BCE51B0709F460C09FC0053CECE51E07BC
:100EC00009F466C0063CFCE51F0709F095C047E23F
:100ED00050E261E370E279C00A3C2CE5120709F4A4
:100EE00066C078F4083CACE51A0709F45BC0093C1D
:100EF000BCE51B0709F080C04AE150E26DE070E2FA
:100F000064C00B3CECE51E0709F456C00C3CFCE544
:100F10001F0709F071C048E85EE16AE97EE155C04B
:100F2000003DBCE51B0709F456C0013DECE51E077A
:100F300009F062C06EE089E05CC0053DFCE51F077A
:100F400009F452C060F4033D3CE5130709F449C0BD
:100F5000043D8CE5180709F04FC088E1F7CD063D48
:100F6000ACE51A0709F443C00F35BDE51B0709F0CE
:100F700043C06AE285E23DC08091B70280FFE2CDC6
:100F80000E94AC1EE9C24FEA51E269EB71E21DC05A
:100F900049EB51E26FEA71E218C041E350E267E2C7
:100FA00070E213C04DE050E26AE170E20EC043EF20
:100FB0005FE160E070E209C040E050E263EF7FE192
:100FC00004C04AE95EE168E87EE10E94811AC4C279
:100FD00065E082E00EC068E086E00BC064E18FE06F
:100FE00008C067E185E105C062E289E102C083E2F1
:100FF000ADCD0E946E1AB0C2992309F46EC00C35B3
:10100000EDE51E0709F464C060F401152CE5120734
:10101000A9F00F3D3CE5130709F05FC00E94D827F7
:101020004CC00E358DE5180709F44AC008F452C0CB
:10103000093AADE51A0709F440C04FC01092FB0110
:101040000E94B224BFEFE4E3FCE0B150E040F04086
:10105000E1F700C00000F89481E08093E00080E2B6
:101060008093D8001092C9008FE19EE40197F1F7B8
:1010700000C000001DBA109268001CBC10BE1FBA50
:1010800010927A0010926E0010926F001092710010
:10109000109272001092C9001092BC0014B817B8D8
:1010A0001AB81DB810BA1092BC0015B818B81BB801
:1010B0001EB811BA0C94003F4FC20E94681B4CC26C
:1010C0008091ED0282FB882780F991E0892703C097
:1010D00081E001C080E00E94D728F7018281008171
:1010E0001181882349F0C8010E940722D82E682F59
:1010F000C8010E94352404C0C8010E940124D82ED2
:10110000B8018D2D0E9423260E943C26D82E192F2F
:10111000982EF7010281A580A2949FE0A9228091D8
:101120007F038770B9F00023A9F0812F807F80347E
:1011300021F080E28D0D883068F08091ED0282FF11
:1011400009C082E00E94BA2880917F038770CC2476
:10115000C3948111C12CB12EB2948FE0B8228B2D93
:1011600090E08C30910508F0C8C1FC01EA5AFF4FAD
:101170000C94EF2C812F807F1F70882311F0129523
:10118000107F0023B9F0112309F4A5C180E28D0D71
:10119000883010F0911006C08091FB01182B10933D
:1011A000FB0105C08091BC02182B1093BC020E9469
:1011B000652891C18D2D0E94EC24112309F49DC155
:1011C00080E28D0D883080F1992071F11095809129
:1011D000BC0218231093BC022AC0812F807F1F708D
:1011E000803211F01295107F8D2D992021F0F1E0C1
:1011F0009F16C1F144C08091ED0282FD1BC0002307
:1012000069F0112339F08091FB01182B1093FB0139
:101210000E94652880E00E9421256FC180E00E9425
:10122000EC24112309F469C1812F0E945E280E94D9
:10123000652863C1002369F08091A003A11002C05A
:10124000812B17C021E0812BA21213C00E945428C9
:1012500054C1AA2021F031E0A31609F44EC10E9426
:101260004E281FC0002341F081E08A1508F445C1D3
:10127000812F0E94E22441C1A1103FC112C000236E
:1012800019F0AA20A9F327C1AA2059F0893309F03F
:1012900031C19FEFA7EEB3E09150A040B040E1F71D
:1012A00027C1812F0E94DB2428C1812F8695869536
:1012B000837019F0813061F020C1002321F08D2D61
:1012C000912F937002C080E090E00E9437191BC1FB
:1012D000002321F08D2D912F937002C080E090E0CB
:1012E0000E94211910C18D2D002319F00E94F520B4
:1012F00002C00E943B200E94C42105C1812F83703F
:10130000A9F50111FEC04D2D429546954770440F39
:10131000440F8D2D8F7090E09C01042E01C0220F90
:101320000A94EAF7D4FE08C08FE090E001C0880F6D
:101330004A95EAF7809501C080E0169516951370DE
:10134000123069F088F49091A103113019F0822BCA
:10135000892302C0922B892B0E94AD24D2C0822BFC
:101360009091A1038927F8CF822BF6CF002319F0A3
:10137000812F817001C08695882309F4C2C04D2D4C
:10138000429546954770440F440F8D2D8F7090E025
:101390009C01042E01C0220F0A94EAF7D4FE08C073
:1013A0008FE090E001C0880F4A95EAF7809501C070
:1013B00080E0169516951370123059F078F49091DC
:1013C000C501113019F0822B892309C0922B892B7A
:1013D00006C0822B9091C501892701C0822B0E94F3
:1013E0006A248FC01F70002339F0812F0E94A1242E
:1013F0008D2D0E94E22485C08D2D0E94DB24812F3B
:101400000E9494247EC08D2DE2EF9E1669F1E915AD
:1014100038F0F0EF9F1659F021EF921601F157C006
:1014200033EF931641F194EF9916A9F050C00023C1
:1014300069F0A11062C01F7181E090E001C0880FC7
:101440001A95EAF79091C50189271FC0A1E0AA1556
:1014500008F453C0F0CF8091ED0282FD19C0002343
:1014600029F0812F8F7126C00023D9F3812F8F712E
:101470000E94942442C0002339F01F7181E001C012
:10148000880F1A95EAF701C080E00E946A2435C0EF
:10149000002399F01F71812F0E94A1248091ED02F9
:1014A00082FF07C0B8E01B9FC001112483608093B6
:1014B0007F03812F0E94A12420C081E00E94BA28CE
:1014C000E1E0EA15D0F482E00E94BA2816C00023B9
:1014D00021F0AA2031F28D2D9ECEAA2039F2893337
:1014E00049F4FFEF27EE33E0F15020403040E1F7C0
:1014F00000C000008D2D0E94EC2488EF8B0D8430FD
:1015000010F40E944D19CC20B1F080917F0380FD32
:1015100012C0D70112961C928595859585950E94DB
:10152000A124C7010E944E0480917F038595859573
:1015300085950E94942485E0F701DE0111960190C3
:101540000D928A95E1F709811A81C8010E94012450
:10155000B8010E94232624C080917F03877001F187
:10156000D70112968C918823D9F08091ED0282FFE9
:1015700017C082E00E94BA2813C060E570E089E3DA
:101580000E94C625DFCBF9E32F12D4CB60E570E0D3
:1015900089E30E94C625D9CBD70112969C91B8CA7F
:1015A000A596E2E10C948F2BACE5B0E0EAEDFAE011
:1015B0000C94762B85B7806885BF85B7806885BF1A
:1015C00084B7877F84BF0FB6F894A8958091600098
:1015D000886180936000109260000FBE90E080E808
:1015E0000FB6F89480936100909361000FBE8EED6A
:1015F00095E29093AD018093AC010E949F130E94ED
:10160000BE138091E20084608093E2007894809120
:101610002C028823A1F01091E9001F709091EC003A
:10162000892F817090FD80E8182B1092E90080913D
:10163000E80083FD0E9489101F701093E90082E08A
:1016400084BD93E095BD9AEF97BD80936E000E9494
:10165000301C90E090931F0180931E010E946B1D2F
:101660000E94B11DE6EBF1E0AAECB1E011921D92EF
:1016700021E0E43CF207D1F78EE090E00E94042DD7
:101680008093B0019093B101FC010E961192E8177E
:10169000F907E1F789EA8093800089E0809381006F
:1016A00024982C983F988AB18F7C8AB96E98479A73
:1016B0008BB180638BB9769A8FE090E00E941E2CEC
:1016C0006093B2017093B3018093B4019093B5011C
:1016D00067703FEF639FB00111247595679575950D
:1016E00067957727709389006093880070938B00CB
:1016F00060938A0070938D0060938C000E94A71CF9
:1017000080E090E00E94242C883E9E4F11F00E94C1
:10171000D82782E090E00E94162C8093D80184E0C4
:1017200090E00E94162C182F82E290E00E94162C66
:10173000212F30E0382B3093ED022093EC0283E030
:1017400090E00E94162C0E94AD248091C5010E9459
:10175000B41B8091C401811136C080E090E00E94EA
:10176000242C883E9E4F21F00E94D8270E94C51E3F
:1017700088E090E00E941E2C6093B7027093B8023C
:101780008093B9029093BA026E7F71F40E94C51ED5
:1017900088E090E00E941E2C6093B7027093B8021C
:1017A0008093B9029093BA020E94621E10920503C0
:1017B0008091B70280FF04C060E086950E94662198
:1017C00081E08093C4018091C5010E94B41B8AE02E
:1017D00091E09093E4028093E30288E1E82EF12CFB
:1017E00098EDC92E91E0D92E80912C02853009F018
:1017F0007EC000E4B02EAA24A39400E112E18091FF
:101800002C02853009F064C080912C02843009F4E8
:101810003DC0109205038091C701811116C0A092AE
:10182000C7018091B702982F91709093C6018E7F67
:101830008093B702FFEF20E732E0F15020403040C4
:10184000E1F700C000000E94BE1D1092E7020FB633
:10185000F894A895E09260000FBEB092600083B744
:10186000817F846083BF83B7816083BF78948895CC
:1018700083B78E7F83BF0FB6F894A89580916000E0
:10188000886180936000109260000FBE80911F02FB
:10189000882309F4B4CF0E94301C90E090931F017C
:1018A00080931E010E946B1D0E94B11DEAECF1E0C5
:1018B000119241E0E83DF407D9F70E946629EAEC6D
:1018C000F1E08191811147C3CE16DF06D1F797CFA2
:1018D0001092FB010E94B2240E944D191092C70180
:1018E0008091C60181110E94A1210E9450210E9475
:1018F000662919EDA12E11E0B12EAAECB1E0F50197
:1019000091918D91892791E0E73EF90719F088239D
:10191000B9F332C0811130C00E94C4188C0180918B
:10192000C8019091C9010817190709F473C08FEF16
:1019300064968FAF649765968FAF659766961FAE76
:1019400066970E94C4188160782F68969FAF8EAF0B
:10195000689764964FAD649765965FAD6597669698
:101960006FAD669768968FAD68970E94B51A109311
:10197000C9010093C8014EC0BAEC8B2EB1E09B2E7A
:1019800010E0F40151904F01F5016080652481F170
:1019900000E077247394862D872121F169960FAF9B
:1019A00069976A961FAF6A9791E0852D872109F4A0
:1019B00090E06B969FAF6B970E94C4188160782F60
:1019C0006D969FAF8EAF6D9769964FAD69976A968A
:1019D0005FAD6A976B966FAD6B976D968FAD6D9798
:1019E0000E94B51A0F5F770C0630A9F6F5015082F8
:1019F0001F5FFFEFAF1ABF0A1E3009F0C2CF8FB7CB
:101A0000F8944091E8025091E9026091EA027091E5
:101A1000EB028FBF80911C0182FF19C00E94C41885
:101A20002091DD023091DE02AC01421B530B20916C
:101A30001A0130911B014217530748F047EE51E05D
:101A4000BC018091DF029091E0020E947D1980919B
:101A50000503882309F4A5C080910403E091B7022F
:101A6000E695E81BE0930003823059F4F0E0E95377
:101A7000FE4FE4910E2F10E0A0E5AA2EA8E1BA2EA9
:101A80006BC0863059F4F0E0EC53FE4FE4910E2F1A
:101A900010E0F0E4AF2EF8E1BF2E5EC0893061F4B3
:101AA000E695F0E0EF53FE4FE4910E2F10E0ECEDE1
:101AB000AE2EE7E1BE2E50C08F3061F4E695F0E027
:101AC000E254FE4FE4910E2F10E076E7A72E77E167
:101AD000B72E42C0853159F4F0E0E554FE4FE49151
:101AE0000E2F10E066E2A62E67E1B62E35C08831D3
:101AF000F9F0833249F4E9EBF1E00591149156E0F5
:101B0000A52E58E1B52E28C08432C9F08532F1F4F3
:101B10008E2F63E00E94C12CE92FF0E0EA54FE4FC3
:101B2000E4910E2F10E04DEDA42E45E1B42E14C02B
:101B300008E210E03BEAA32E36E1B32E0DC004EF1D
:101B400011E023E7A22E26E1B22E06C000ED17E039
:101B50009CE7A92E95E1B92E80910103882361F0BD
:101B6000109201030E94C4189093FF028093FE021A
:101B700010920303109202030E94C418E091FE0227
:101B8000F091FF028E1B9F0B8F3F9F4750F40E0F6B
:101B90001F1F1093FF020093FE028EEF92E0F501EB
:101BA000099585E0E8EFF2E0DE01119601900D92D3
:101BB0008A95E1F71092F9021092FA021092FB0254
:101BC0001092FC021A81111104C08B81882309F440
:101BD00052C08091F6029091F7020E94B5189C01C4
:101BE0009091F202992309F4CEC12531310508F410
:101BF00042C09F3F19F09F5F9093F202112361F062
:101C00000E94D220111614F491E001C09FEF899F29
:101C1000802D11248093F9021B81112361F00E9411
:101C2000D220111614F491E001C09FEF899F802DFE
:101C300011248093FA023091F9023323E1F02091CC
:101C4000FA022223C1F045EB3403C0011124992389
:101C500019F09093F90203C081E08093F90235EB0B
:101C60002303C0011124992319F09093FA0203C0B1
:101C700081E08093FA021C81111104C08D818823B8
:101C800009F452C08091F4029091F5020E94B518B7
:101C90009C019091F102992309F479C12531310514
:101CA00008F442C09F3F19F09F5F9093F102112307
:101CB00061F00E94B220111614F491E001C09FEF70
:101CC000899F802D11248093FB021D81112361F0D7
:101CD0000E94B220111614F491E001C09FEF899F79
:101CE000802D11248093FC023091FB023323E1F01C
:101CF0002091FC022223C1F045EB3403C0011124E2
:101D0000992319F09093FB0203C081E08093FB02BA
:101D100035EB2303C0011124992319F09093FC02A1
:101D200003C081E08093FC0245E050E0BE016F5F9C
:101D30007F4F88EF92E00E94322E892BA9F4809188
:101D4000F90281110FC08091FA0281110BC08091BC
:101D5000FB02811107C081E09091FC02911103C048
:101D600080E001C081E080FD0E94C42185E0FE0189
:101D70003196A8EFB2E001900D928A95E1F70E94AA
:101D80004D199091ED01891769F08093ED018FB79E
:101D9000F8944091E8025091E9026091EA02709152
:101DA000EB028FBF80912C02843009F01DCD80930F
:101DB000E9008091E80082FF17CD8091E80085FF5F
:101DC00022C00E94F01481111CC000E210E05E01EC
:101DD00041E2A40EB11C08C08091F100F50181938D
:101DE0005F010150110969F08091E80085FDF4CF91
:101DF0008091E8008B778093E8000E94F01488239C
:101E000099F391E001C090E08091E8008B77809396
:101E1000E800992309F4E8CCE9A18E2F90E08930FD
:101E2000910508F094C0FC01EE59FF4F0C94EF2C83
:101E30008BA19AA19093EE018093EF018DA19CA1BB
:101E40009093F0018093F1018FA19EA19093F201F4
:101E50008093F30142E150E063E270E0CE018F5BDA
:101E60009F4F0E94062C84E0898381E080932A02A0
:101E70008EEF8A83109229020CC019828CE0E0E375
:101E8000F1E0DE01129601900D928A95E1F78EEF56
:101E90008D87CE0101960E944D15A6CC04EF11E06E
:101EA0008AEFA82E81E0B82E0E943D1AF801819396
:101EB00091938F01AE16BF06B9F781E089839091A7
:101EC000F4019A839091F5019B839091F6019C8394
:101ED0009091F7019D839091F8019E839091F90173
:101EE0009F839EEF988780932902CE0101960E94DE
:101EF0004D1542E150E063E270E0CE0101960E9490
:101F0000062CFE01319682E183301CF09189928B80
:101F100001C0128A815031978F3FB1F742E150E002
:101F200063E270E0CE0101960E942A2C5DCC809184
:101F30002A02882309F458CC80E00E946A248AA1EE
:101F40000E94A12451CC85E003C084E001C08FEF42
:101F50000E945D1A49CC09BD19BD09B400FEFDCF30
:101F60008091D8008F7D8093D8008091E0008260BE
:101F70008093E0008091E00081FDFCCF1092FB0196
:101F80000E94B2243CCC232B09F035CE74CE2139EB
:101F9000314008F089CEC8CE8091210287FF11C060
:101FA0008091E80082FD05C080912C028111F8CF5C
:101FB00011C08091E8008B770BC080912C028823A0
:101FC00049F08091E80080FFF8CF8091E8008E779B
:101FD0008093E8000895982F973068F59093E90072
:101FE000981739F07091EC002091ED005091F000BD
:101FF00003C0242F762F50E021FD02C09F5FECCF5D
:102000003091EB003E7F3093EB003091ED003D7F4F
:102010003093ED003091EB0031603093EB00709322
:10202000EC002093ED005093F0002091EE0027FD8E
:10203000E5CF80E008958F708093E90081E00895F6
:1020400020912702309128022617370748F06115A2
:10205000710539F42091E8002E772093E80001C043
:10206000B901FC0120E06115710579F180912C0224
:102070008823F1F18530F1F18091E80083FD3CC0C7
:102080008091E80082FD2EC08091E80080FFEBCFB8
:102090002091F3008091F20090E0922B6115710580
:1020A00051F08830910538F421912093F10061506E
:1020B00071090196F3CF21E0089709F020E08091A3
:1020C000E8008E778093E800CECF2111CFCF0AC0F1
:1020D00080912C02882361F0853061F08091E800C6
:1020E00083FD0AC08091E80082FFF2CF80E008956E
:1020F00082E0089583E0089581E008950895BC0189
:1021000084E00E9464180895BC0183E00E94641872
:102110000895AAE2B0E0EFE8F0E10C94822BE1E24E
:10212000F2E089E292E02091F10021938E179F075F
:10213000D1F780912202833009F463C030F48130FA
:1021400071F0823009F49FC0B6C08A3009F48BC0A8
:102150008B3009F46EC0893009F0ADC020C0809189
:102160002102813A09F0A7C08091E800877F80931F
:10217000E8008091250290912602892B21F460E2EB
:102180008EEF91E003C060E080E090E070E00E949C
:1021900020108091E8008B778093E8008CC08091BC
:1021A0002102813209F087C0809125029091260298
:1021B000009719F0039709F07EC08091E800877FAF
:1021C0008093E8008091E80082FD05C080912C0298
:1021D0008111F8CF70C02091F3008091F20090E05F
:1021E000922B029731F48091F100813011F086300A
:1021F00021F48091F1008093FD018091E8008B77BC
:1022000056C080912102813A09F055C08091250283
:1022100090912602892B09F04EC08091E800877FBB
:102220008093E8008091E80080FFFCCF8091160148
:1022300039C0809121028132F1F58091250290917F
:102240002602892BC1F58091E800877F8093E80002
:102250000E94CC0F80912302809316011092FB0103
:102260000E94B22428C080912102813221F5809100
:10227000E800877F8093E8000E94CC0F80912402C1
:102280008093FC0118C080912102813AA1F48091D1
:10229000E800877F8093E8008091E80080FFFCCF12
:1022A0008091FC018093F1008091E8008E7780930B
:1022B000E8000E94CC0F8091E80083FFE4C1809188
:1022C000210290912202492F50E04A30510508F036
:1022D000DAC1FA01E559FF4F0C94EF2C803821F058
:1022E000823809F0D0C108C080911E0290911F026F
:1022F000992389F082600FC0809125028F7087300A
:1023000008F0C1C18093E9008091EB0085FB88272C
:1023100080F91092E9009091E800977F9093E8008F
:102320008093F1001092F10070C1282F2D7F09F0E9
:10233000AAC1882319F0823061F0A5C180912302DF
:10234000813009F0A0C1933009F080E080931F0232
:102350002EC08091230281112AC0809125028F70A6
:102360002FEF280F263008F08EC18093E9002091CE
:10237000EB0020FF1CC0933021F48091EB008062C1
:1023800014C09091EB0090619093EB0021E030E05D
:10239000A90102C0440F551F8A95E2F74093EA0055
:1023A0001092EA008091EB0088608093EB0010921D
:1023B000E9008091E800877F8093E8000E94CC0FBD
:1023C00062C1811160C1109123021F778091E300E7
:1023D0008078812B8093E3008091E800877F809351
:1023E000E8000E94CC0F8091E80080FFFCCF809134
:1023F000E30080688093E300111102C082E001C015
:1024000083E080932C023FC18058823008F03BC1AA
:1024100020912302309124022C3D53E0350779F5B9
:1024200083E08A838AE289834FB7F894DE011396AA
:1024300020E03EE051E2E32FF0E050935700E491BA
:1024400020FF03C0E295EF703F5FEF708E2F90E0AA
:10245000EA3010F0C79601C0C0968D939D932F5F10
:10246000243149F74FBF8091E800877F8093E800CF
:102470006AE270E0CE0101960E942010B4C0809103
:10248000250290912602432F552743305105A9F08C
:1024900068F44130510509F405C14230510509F095
:1024A000F2C084E790E0E1EEF2E04BC0413251052A
:1024B00029F14232510589F1E6C0C90199278130DD
:1024C0009105A1F058F0029709F0DDC0E7E6F3E0CE
:1024D000E4918E2F90E0E7E6F3E030C0E5EBF3E027
:1024E000E4918E2F90E0E5EBF3E028C0EBE8F3E019
:1024F000E4918E2F90E0EBE8F3E020C0843091056A
:1025000008F0C1C0880F991FFC01E85BFE4F0190E5
:10251000F081E02D89E090E014C08430910508F04E
:10252000B2C0FC01EE0FFF1FE05CFE4F0190F08196
:10253000E02DDC01A45CBE4F8C9190E0009709F483
:10254000A2C02091E800277F2093E8002091270275
:10255000309128022817390708F4C90140E0009794
:1025600089F120912C02222309F43DC02530D9F1B4
:102570002091E80023FD37C02091E80022FD2FC004
:102580002091E80020FFEBCF4091F3002091F20072
:1025900030E0342B009759F02830310540F4449155
:1025A0004093F100319601972F5F3F4FF3CF41E009
:1025B0002830310509F040E02091E8002E77209383
:1025C000E800CDCF4111CDCF0AC080912C028823E5
:1025D00051F0853041F08091E80083FD04C0809186
:1025E000E80082FFF2CF8091E8008B778093E800CB
:1025F0004AC0803809F047C08091E800877F809307
:10260000E800809120028093F1008091E8008E77AD
:10261000D3CE811138C08091230290912402992752
:1026200002978CF58091E800877F8093E8001091F5
:102630002302109320020E94CC0F111106C080913A
:10264000E30087FD02C081E001C084E080932C029A
:1026500042E061EC81E00E94EB0F42E061EC82E03D
:102660000E94EB0F42E261EC85E00E94EB0F42E238
:1026700061EC83E00E94EB0F42E260EC84E00E9498
:10268000EB0F80912C028091E80083FF10C08091B5
:10269000E800877F8093E8008091EB008062809360
:1026A000EB0005C082E190E0E5E5F3E04ACFAA96B1
:1026B000E3E00C949E2B1F920F920FB60F92112401
:1026C0002F933F934F935F936F937F938F939F933A
:1026D000AF93BF93CF93DF93EF93FF93C091E90044
:1026E000CF708091EC00D82FD17080FDD0E810928F
:1026F000E9008091F000877F8093F00078940E9439
:1027000089101092E9008091F00088608093F000B9
:10271000CD2BCF70C093E900FF91EF91DF91CF9166
:10272000BF91AF919F918F917F916F915F914F91E9
:102730003F912F910F900FBE0F901F901895E8EDCD
:10274000F0E080818E7F80831092E2001092DA00A8
:102750001092E100A0EEB0E08C9181608C938081BA
:102760008F77808319BCA7EDB0E08C918E7F8C931E
:1027700080818F7E80831092FA010895A0E0B0E0FE
:10278000E4ECF3E10C947D2BC8EDD0E088818F7EE2
:102790008883E7EDF0E080818160808384E082BF00
:1027A00081E08093FA0188818E7F888302EE10E0B9
:1027B000F80110821092DA0081EEC82ED12CF601B9
:1027C000108288818F778883888180688883888158
:1027D0008F7D888319BC10922C02109220021092D7
:1027E0001F0210921E0290EEE92EF12CF70180815B
:1027F0008B7F808388818160888342E060E080E015
:102800000E94EB0FF60180818E7F8083F80180812A
:1028100081608083808188608083F70180818E7FE2
:102820008083888180618883CDB7DEB7E8E00C942F
:10283000992B1F920F920FB60F9211242F933F9353
:102840004F935F936F937F938F939F93AF93BF93B8
:10285000EF93FF938091E10082FF09C08091E20035
:1028600082FF05C08091E1008B7F8093E100809121
:10287000DA0080FF2AC08091D80080FF26C08091B6
:10288000DA008E7F8093DA008091D90080FF18C033
:1028900080E189BD82E189BD09B400FEFDCF81E000
:1028A00080932C028091FA0181110FC00E949F1326
:1028B0000E94BE138091E20084608093E20005C014
:1028C00019BC10922C021092FA018091E10080FF55
:1028D00017C08091E20080FF13C08091E2008E7FDC
:1028E0008093E2008091E20080618093E200809119
:1028F000D80080628093D80019BC85E080932C02B8
:102900008091E10084FF30C08091E20084FF2CC000
:1029100080E189BD82E189BD09B400FEFDCF8091CF
:10292000D8008F7D8093D8008091E1008F7E8093C6
:10293000E1008091E2008F7E8093E2008091E200CE
:1029400081608093E20080912002882311F084E06E
:1029500007C08091E30087FD02C081E001C083E0F1
:1029600080932C0280912C028091E10083FF27C08C
:102970008091E20083FF23C08091E100877F8093F4
:10298000E10082E080932C02109220028091E1000D
:102990008E7F8093E1008091E2008E7F8093E20041
:1029A0008091E20080618093E20042E060E080E09C
:1029B0000E94EB0F8091F00088608093F000FF91FF
:1029C000EF91BF91AF919F918F917F916F915F91A7
:1029D0004F913F912F910F900FBE0F901F90189520
:1029E0002091E4003091E50095E64091EC00842FC1
:1029F000817040FF23C08091E80080FD1DC0809160
:102A00002C02882399F0853099F08091EB0085FDA8
:102A100011C04091E4005091E5002417350729F3D7
:102A2000915011F09A01E1CF84E0089582E0089579
:102A300083E0089581E0089580E008954091E800E2
:102A400042FFDDCF0895EF92FF920F931F93CF9334
:102A5000DF937C018B010E94F014811119C0E70102
:102A600001151105A1F08091E80085FD0AC0809153
:102A7000E8008E778093E8000E94F014882381F3A9
:102A800007C089918093F10001501109E9CF80E0DE
:102A9000CDB7DEB7E6E00C949B2BCF9320912C02B0
:102AA000243029F5C091E900CF703091EC00232F3C
:102AB000217030FD20E8C22B23E02093E900209113
:102AC000E80020FF11C040E050E060E270E00E94AA
:102AD0002315882321F01092290210922A02809156
:102AE000E8008E778093E800CF70C093E900CF9123
:102AF00008958091FD010895089522E02093E90052
:102B00002FEF3091E800215035FD06C035ED3A95A4
:102B1000F1F700002111F5CF2091E80025FF0BC04F
:102B200040E050E065E070E00E9423158091E800ED
:102B30008E778093E8000895CF93DF93209116015C
:102B4000222339F02091EC0227FF03C060E225E048
:102B500002C068E021E02093E9002FEF3091E80007
:102B6000215035FD06C035ED3A95F1F700002111F1
:102B7000F5CF2091E80025FF1DC0EC0180911601E2
:102B8000811105C040E050E068E070E003C070E0F3
:102B900040E050E0CE010E9423158091E8008E773E
:102BA0008093E80080E2FE01AEEFB1E001900D926B
:102BB0008A95E1F7DF91CF910895A0E0B0E0E3EED0
:102BC000F5E10C947A2BFC01A280948081E084834F
:102BD000E9EBF3E0B490E8E3F4E0E491CCE6D2E092
:102BE000F0E3EF2EF2E0FF2ECC24CA94D12CEB19A7
:102BF0000E2F10E022E02A1530F08091B802888371
:102C00008091B9028983911003C01B821A8255C03A
:102C10008B818823F9F081508B832FEF829FC00135
:102C200011246C8170E00E945F2BFB01FF27E754A9
:102C3000FC4F8491E82FEB192FEFE29FC001112484
:102C4000B8010E945F2B8091BA02689FB0011124E5
:102C50007A8333C00E94F62B2091BA022695215820
:102C600030E0A901440F551F322F2227240F351FB2
:102C7000232F33278217930704F582E08A1588F4FF
:102C80000E94F62BB6010E94DB2C88830E94F62B53
:102C90002091B9022695622F70E00E94DB2C280F4C
:102CA00029831A828091BA02843120F0893C18F07D
:102CB00088EC01C084E18C838B8397014A81698110
:102CC00088810E94D51E259624E0E20EF11C82E048
:102CD000C73BD80709F08ECF0E94BE1DCDB7DEB727
:102CE000EBE00C94962BEF92FF920F931F93CF93F0
:102CF000DF938C01C0E3D2E0E12CF12CF801848158
:102D0000F7E0EF16F1041CF4882339F002C08111BA
:102D100004C09E014091BA0202C09E0140E0609151
:102D2000B9028091B8020E94D51E8FEFE81AF80A06
:102D300024969FE0E916F10409F70E94BE1DF801F0
:102D4000848190E00196817099278483CDB7DEB7A6
:102D5000E6E00C949B2BA0E0B0E0E1EBF6E10C94F4
:102D6000792BEC014C81042F10E09801D8010E94CE
:102D7000B22C9B01AC010E947D2C6B017C01E0E236
:102D8000F0E0E01BF10BA5E5B0E09B01AC010E9477
:102D90007D2C4B015C019F01DF010E94F52C9B0102
:102DA000AC010E94882C9B01AC012C0D3D1D4E1DD9
:102DB0005F1DC501B4010E94902C822FF22E99E272
:102DC000921728F093E0299F900111240DC025E56A
:102DD00030E0281B3109C901880F991F280F391FBE
:102DE00037FF02C02F5F3F4F35952795122F109563
:102DF00090E3C92E92E0D92E00E085E5E82EEF1889
:102E000001FD02C08E2D01C08F2D9601412F6091D2
:102E1000B9020E94D51E0F5F84E0C80ED11C0F308E
:102E200079F70E94BE1D8C81811102C091E003C020
:102E3000803219F49FEF9093190190911901890F35
:102E40008C83CDB7DEB7ECE00C94952B0F931F93DA
:102E5000CF93DF93C0E3D2E0FE0111821082128291
:102E60001382349682E0EC36F807B9F700E010E000
:102E700080912E02082E000C990B0817190794F068
:102E800080911801082E000C990B8017910754F0BF
:102E90009E014091BA026091B9028091B8020E94ED
:102EA000D51E04C0198218821A821B820F5F1F4F21
:102EB00024960F301105E1F60E94BE1D8091170186
:102EC00090912E02980F90932E0220911801280FB6
:102ED00020931801121614F49E301CF081958093F3
:102EE0001701DF91CF911F910F910895A0E0B0E0FD
:102EF000ECE7F7E10C947C2BFC01828180FF03C09E
:102F0000DD24DA9402C0DD24D39400E312E0C0E0B3
:102F1000D0E02FE0B22EF8011182108212821382CB
:102F200094E0E92EF12CC12C80912D028C0D803182
:102F30002CF06B2D0E94CD2C892F02C087FD815F64
:102F4000082E000C990BC817D90791F48091BA028A
:102F50008E9DA0018F9D500D112455954795559537
:102F6000479598016091B9028091B8020E94D51EE0
:102F7000CD0CF1E0EF1AF108B9F621960C5F1F4F66
:102F8000CF30D10541F60E94BE1D80912D0291E007
:102F9000D91206C0811102C08EE007C0815005C061
:102FA00090E00196BE010E94DB2C80932D02CDB7EC
:102FB000DEB7E9E00C94982BEF92FF921F93CF932A
:102FC000DF93EC0180E3E82E82E0F82E10E08C81A4
:102FD00097014091BA026091B902810F0E94D51EFB
:102FE0001F5E84E0E80EF11C1F3F89F70E94BE1DA2
:102FF0009A818C8190FF02C08F5F01C081508C83C9
:10300000DF91CF911F91FF90EF900895A4E0B0E081
:10301000ECE0F8E10C94812B8C0180912F0281115E
:103020000AC09E012F5F3F4F4FEF6FEF0E94D51EEA
:103030008A8180932F02F8018481813051F028F039
:10304000823061F440912F020AC080912F0240E04B
:1030500007C060912F0240E080E003C040E080E0C4
:1030600060E00E94501EF801848190E0019663E0C8
:1030700070E00E94DB2C84832496E4E00C949D2B6A
:10308000CF93DF93EC01E7EBF2E0438162818C8127
:103090000E94621F8C818F5F8C83DF91CF91089596
:1030A000CF93DF93EC01EC81F0E0E754FC4F4491C7
:1030B000E7EBF2E0628181810E94621F8C818F5F69
:1030C0008C83DF91CF9108958093EE027093F0028C
:1030D0006093EF0280912C02843001F585E08093AB
:1030E000E9008FEF9091E800815095FD06C095EDC5
:1030F0009A95F1F700008111F5CF8091E80085FFE6
:103100000DC040E050E063E070E08EEE92E00E947F
:1031100023158091E8008E778093E80008957894D5
:103120001F920F920FB60F9211248F939F93AF931C
:10313000BF938091E8029091E902A091EA02B091D8
:10314000EB020196A11DB11D8093E8029093E90264
:10315000A093EA02B093EB02BF91AF919F918F9140
:103160000F900FBE0F901F9018959C014FB7F894C9
:103170008091E8029091E902A091EA02B091EB02FD
:103180004FBF821B930B08952FB7F8948091E802EC
:103190009091E902A091EA02B091EB022FBF08954D
:1031A0001F920F920FB60F9211248F939F93AF939C
:1031B000BF938091E702811113C08091E802909142
:1031C000E902A091EA02B091EB024196A11DB11D66
:1031D0008093E8029093E902A093EA02B093EB0295
:1031E000BF91AF919F918F910F900FBE0F901F9045
:1031F0001895209116012223C9F02091EC0227FF97
:1032000015C0262F2695269526952E31C8F4FC014B
:10321000E20FF11D677081E090E001C0880F6A95B0
:10322000EAF780959281892382830895FC010696AE
:103230002281621301C012823196E817F907C1F7A3
:1032400008952091E5023091E6022817390771F0C0
:103250009093E6028093E502E091E302F091E402AC
:10326000309721F00084F185E02D09950895209193
:10327000E1023091E2022817390771F09093E202DF
:103280008093E102E091E302F091E402309721F0B3
:103290000680F781E02D09950895E091E302F09111
:1032A000E402309729F00190F081E02D099508950E
:1032B00080E0089580911C01877F80931C0190918C
:1032C000BC029D7F9093BC0284FF08C08F7E8093D8
:1032D0001C018091FB0182608093FB0180911C01A5
:1032E00085FF08C08F7D80931C018091FB01806267
:1032F0008093FB010E9465280895A0E0B0E0E3E818
:10330000F9E10C947E2BEC018B0180911C0182FF72
:1033100091C0E090DF02F090E002EC16FD0619F09B
:10332000209709F087C080911C018B7F80931C013E
:1033300081FD11C08091DD029091DE02A801481B41
:10334000590B81E020911A0130911B01421753075C
:1033500018F480E001C081E08170D82E80911C01BA
:10336000D0FA81F980931C01E701DD27FE0184E09A
:10337000F695E7958A95E1F797012F703327EE0FC1
:10338000FF1FE354FD4F81E090E002C0880F991FBA
:103390002A95E2F7DD2029F020813181822B932BC1
:1033A00006C080959095208131818223932391835B
:1033B00080838091FB0181FF08C080911C018061A6
:1033C00080931C0182E00E945E288091FB0185FFB2
:1033D00008C080911C01806280931C0180E20E94E1
:1033E0005E28DD2039F08091BC0282608093BC02AF
:1033F0000E946528C7019056811520E2920720F0AF
:10340000905E8115904108F47E01C7010E949A1BCD
:103410008091DF029091E0029C013056211540E23C
:10342000340720F0305E2115304108F499270E94BE
:10343000801B18C09E013327CE019056811540E2B3
:10344000940720F0905E8115904110F4C90101C0ED
:10345000CE010E94801B8091DF029091E002C8178C
:10346000D90711F40E945A191093DE020093DD026D
:10347000CDB7DEB7E7E00C949A2BCF93DF930E9491
:10348000F62B66E070E00E94DB2CD82F0E94F62B12
:103490006EE070E00E94DB2CC82F6D2F782F80E04B
:1034A0000E9423260497C59718F48D2F9C2F02C0E5
:1034B0000E943D1ADF91CF910895A0E2B0E0E3E6CB
:1034C000FAE10C94832B9FEF99838A83CE010196B6
:1034D0000E944D15A096E2E00C949F2B9091B702AC
:1034E00090FF04C09695981748F003C0811106C05C
:1034F00090E0961718F40E94B92108950E94AB211C
:103500000895882311F0FA0101C0FB01099508957F
:103510009C013A9521153F4130F5BC016627727038
:10352000AC01442754709C012227387094FF0FC0CF
:1035300090FF02C080E101C080E0672B09F080624B
:10354000452B09F08064232B79F080680895892F3A
:103550008170672B09F08260452B09F08460232B72
:1035600019F08860089580E00895A7E1B0E0EBEBE2
:10357000FAE10C94822B4B8B5C8B6D8B7E8B8F8B4B
:1035800061111092BC0286E09E01235F3F4FD9017A
:10359000E82F1D92EA95E9F795E0FE017396D901AF
:1035A00001900D929A95E1F79C894E895F897B89FC
:1035B0007D879E876F87598B488BF901DE011796AF
:1035C00001900D928A95E1F7CE0107960E947A222A
:1035D00081113EC086E0FE013796DE011196019012
:1035E0000D928A95E1F7FF81E8856A857B856115F3
:1035F000710531F0EF3F31F481E0FF3F19F403C072
:1036000081E001C080E080FD23C020914D0330E0C7
:10361000C90101968770992740917E0350E0841775
:10362000950779F1F983EA837D836C8396E0929F15
:10363000D001939FB00D1124A25BBC4FFE013196C7
:1036400001900D929A95E1F780934D030E94F32823
:1036500016E080917E0390914D03891709F1189F20
:10366000C0011124825B9C4F0E947A228823C1F002
:1036700080917E0390E001968770992780937E0366
:10368000E8CF1092FB010E94B22410924D031092D9
:103690007E03E7E4F3E086E0DF011D928A95E9F717
:1036A0006796E3E00C949E2B982F92959F7019F0EB
:1036B000892F24E001C020E0982F9695969511F06F
:1036C0002E5F892F982F969509F02F5F822F0895EE
:1036D0001092FB010E94B2242FEF84E39CE0215062
:1036E00080409040E1F700C000009AE088E10FB60A
:1036F000F894A895809360000FBE90936000FFCF70
:10370000CF93DF93EC010E94EC24CE01805E9109FF
:10371000089710F0209731F4CE010E94881A0E9479
:10372000DB2405C0CE010E94881A0E94C624DF91C6
:10373000CF910895CF93DF93EC01805E91090897B4
:1037400010F0209731F4CE010E94881A0E94E224E2
:1037500005C0CE010E94881A0E94D1248C2F0E949D
:103760002125DF91CF910895CF93C82F0E94541B3C
:1037700056985E9825982D9826982E9827982F98D9
:10378000482F50E0FA013197E730F105C8F4EB58C3
:10379000FF4F0C94EF2C259A2D9A17C0279A2F9A39
:1037A00023C0259A2D9A269A2E9A2FC0259A2D9AB3
:1037B00004C0259A2D9A269A2E9A279A2F9A25C0C8
:1037C000813019F0833081F020C08091AF018111E8
:1037D00044C00E94A12160E081E00E94662120E0B7
:1037E0004FE862EF86EC0EC08091AF01811135C0C9
:1037F0000E94A12160E081E00E94662120E044EF68
:1038000063EE89E20E947A1F28C08091AF01811186
:1038100024C088E090E00E941E2C6093B702709351
:10382000B8028093B9029093BA02862F60FF13C04A
:1038300081608093B70286950E94AB218091B70288
:1038400086950E94AB2121E04091BA026091B902B5
:103850008091B802D7CF0E94AC1E8C2FCF910895D3
:1038600080E290E090931F0180931E018091FD0201
:1038700081110EC00E948F2A81E08093FD022FEFFC
:1038800083ED90E3215080409040E1F700C00000BC
:1038900060E570E080E40E94952A90931F01809378
:1038A0001E01892B09F04EC060E570E080E00E94A7
:1038B000082B90931F0180931E01892B09F042C0B1
:1038C00060E570E080E00E94082B90931F018093D8
:1038D0001E01892BB9F560E570E08FE30E94082B8B
:1038E00090931F0180931E01892B61F50E945B2B31
:1038F00060E570E080E40E94952A90931F01809318
:103900001E01892BF9F460E570E08CE00E94082B21
:1039100090931F0180931E01892BA1F460E570E054
:1039200080E00E94082B90931F0180931E01892B39
:1039300049F460E570E08FE30E94082B90931F012B
:1039400080931E010E945B2B80911E010895CF93EE
:10395000DF9356985E9825982D9826982E9827984C
:103960002F98C8E8D0E08FEF90E099838883AAE889
:10397000B0E011969C938E93ECE8F0E09183808305
:10398000259A2D9A2FEF80E792E0215080409040B9
:10399000E1F700C00000269A2E9A2FEF80E792E010
:1039A000215080409040E1F700C00000279A2F9AF4
:1039B0002FEF80E792E0215080409040E1F700C077
:1039C000000025982D982FEF80E792E0215080404D
:1039D0009040E1F700C0000026982E982FEF80E776
:1039E00092E0215080409040E1F700C0000027980D
:1039F0002F988091B20187702FEF829FC001112410
:103A0000959587959595879599279983888311969C
:103A10009C938E939183808356985E9825982D98D9
:103A200026982E9827982F98DF91CF910895CF93BD
:103A3000E82F873080F580911E0190911F01892B1E
:103A400009F047C0CE2F60E570E080E40E94952A1F
:103A500090931F0180931E01892BD1F460E570E0E3
:103A600082E10E94082B90931F0180931E01892BF5
:103A700079F481E090E001C0880FCA95EAF760E52B
:103A800070E080950E94082B90931F0180931E0187
:103A90000E945B2B1EC090E0FC013797E730F105D8
:103AA000C0F4E458FF4F0C94EF2C209A289811C0D2
:103AB000219A29980EC0229A2A980BC0239A2B98F3
:103AC00008C0529A5A9805C0539A5B9802C03E9A11
:103AD0004698CF910895209828982198299822985F
:103AE0002A9823982B9852985A9853985B983E9806
:103AF00046980895CF93873040F580911E019091AC
:103B00001F01892B59F560E570E081E40E94952A38
:103B100090931F0180931E01892B11F0C0E011C00A
:103B200080E590E00E94372B97FF05C090931F011E
:103B300080931E01F3CFC82FC09510921F011092E1
:103B40001E010E945B2B8C2F0AC09FB18FB1807F1A
:103B5000869586959370892B809501C080E0CF91E2
:103B600008958098889A8198899A84988C9A8598E3
:103B70008D9A86988E9A87988F9A0895EF92FF92E1
:103B80000F931F93CF93DF938091B70280FF08C0FC
:103B900000E312E08CE6E82E82E0F82EF8011BC06C
:103BA000E0E3F2E08CE692E011821082128213824E
:103BB00034968E179F07C1F7EBCF381708F4832F81
:103BC0008383381B3183281B2083981B9283349670
:103BD000EE16FF0641F0928120813181892F29174D
:103BE00060F7822FEACF8091FD02882381F18091D6
:103BF0001E0190911F01892B51F580911D01882391
:103C000031F165E070E084E80E94952A892B19F073
:103C100010921D011AC0C0E3D2E065E070E0888117
:103C20000E94082B65E070E089810E94082B65E006
:103C300070E08A810E94082B65E070E08B810E9411
:103C4000082B2496EC16FD0641F70E945B2B579A31
:103C50008BB18F779BB190682FB7F894E016F1067F
:103C600099F0F80131918F0148E09BB9000000C044
:103C700037FF8BB9330F000000C000C000C08BB904
:103C800000C04A9591F7EACF2FBF8FE594E00197E6
:103C9000F1F700C00000CDB7DEB7E6E00C949B2B37
:103CA0009091B70290FF0DC0E0E3F2E08183608362
:103CB00042831382349692E0EC36F907B9F70E94FA
:103CC000BE1D08958091B702282F269530E021155A
:103CD000310519F48170826005C02B32310524F062
:103CE000817084658093B7020895CF92DF92EF923E
:103CF000FF926B017C010E94621EB701A60188E061
:103D000090E00E944C2CFF90EF90DF90CF900895B0
:103D10008091BB02882319F081508093BB0260918F
:103D2000B7027091B8028091B9029091BA020E94D4
:103D3000751E08958091BB02833018F48F5F8093C5
:103D4000BB026091B7027091B8028091B902909164
:103D5000BA020E94751E0895E7EBF2E080818E7F23
:103D6000808360817181828193810E94751E10928F
:103D700005032FEF80E792E0215080409040E1F76B
:103D800000C000000E94BE1D0895E7EBF2E083E052
:103D9000808311828FEF828383831482608171819B
:103DA000828193810E94751E0895A0E0B0E0EBED42
:103DB000FEE10C947B2BE82EF62EE901E42FF0E0D7
:103DC000611106C0E754FB4FE4914E2F2E2F71C0B6
:103DD000062F10E0E754FB4F4491F42FC42ED12C52
:103DE00026E0829FC00111242FEF30E0B9010E942C
:103DF0005F2B5BEA5603C001579F900D11248E0D77
:103E0000911D8E0D911D582F550F580FD901A01BD4
:103E1000B10BAC9DC001AD9D900DBC9D900D1124CA
:103E2000E92FF59ED0011124AB2FBB277901EA1AA7
:103E3000FB0AEC9CD001ED9CB00DFC9CB00D112454
:103E40005901A51AB108A09E7001A19EF00CB09E68
:103E5000F00C1124EF2CFF242E193F092C9D80011A
:103E60002D9D100D3C9D100D1124212F62307105E8
:103E700091F048F461157105E1F061307105B9F414
:103E8000242F4B2F16C06430710569F040F0663066
:103E9000710579F00CC0242F492FE12F0AC0492F5A
:103EA000EF2F2B2F06C0292FE42F412F02C0292FDF
:103EB000EB2F49832883EA831B82CDB7DEB7EAE084
:103EC0000C94972BA4E0B0E0E8E6FFE10C94832B80
:103ED0009091B70290FF0AC09E012F5F3F4F0E9452
:103EE000D51E4B8169818A810E94501E2496E2E092
:103EF0000C949F2BA4E0B0E0E0E8FFE10C94762B5B
:103F0000F82E762EE42E622E9091B70290FF67C0B5
:103F1000E92FE695AE2FB0E0A05BBE4F8C91809369
:103F200004039E7F923061F49E012F5F3F4F8F2DDF
:103F30000E94D51E4B8169818A810E94501E3DC01E
:103F4000823019F4E090BA0238C0863019F4F0904B
:103F5000B80233C08930D9F3893179F5E9518E2F10
:103F60008170582EE695F0E0E754FA4FE4910E2F59
:103F700010E080E3C82E82E0D82EA12CB12C9FE067
:103F8000892E912CC501B4010E945F2B8F2D5110F9
:103F900002C0860F01C0861B96014E2D672D0E9420
:103FA000D51EA00EB11E84E0C80ED11C8CE6C8162A
:103FB00082E0D80639F70E94BE1DF092B8027092D6
:103FC000B902E092BA02662051F06091B702709196
:103FD000B8028091B9029091BA020E94751E24968F
:103FE000EFE00C94922BE7EBF2E043812CE0421BD4
:103FF00008F440E021E0628181810E947A1F0895E7
:10400000E7EBF2E043812CE0420F08F44FEF21E0B0
:10401000628181810E947A1F0895E7EBF2E062815C
:104020002FEF621B08F460E021E0438181810E9450
:104030007A1F0895E7EBF2E062812FEF620F08F438
:104040006FEF21E0438181810E947A1F0895E7EBA1
:10405000F2E0818121E0438162818C500E947A1FCD
:104060000895E7EBF2E0818121E043816281845F82
:104070000E947A1F08958D3E39F49091FA0297FFBD
:1040800035C01092FA0259C08E3E29F49091FA027E
:104090001916BCF32BC09091F9028F3E29F497FFBB
:1040A00025C01092F90249C0803F19F41916CCF3CB
:1040B0001DC09091FB02893F29F41916BCF410929F
:1040C000FB023BC08A3F19F497FF10C0F8CF8B3F2B
:1040D00039F49091FC0297FF09C01092FC022DC0A8
:1040E0008C3F21F49091FC021916BCF39FE0980FCD
:1040F000983080F421E030E0A90102C0440F551F40
:104100009A95E2F7CA0180959091F80289238093ED
:10411000F80213C08D3F21F48091F3028E7F0BC013
:104120008E3F21F48091F3028D7F05C08F3F29F4EB
:104130008091F3028B7F8093F3028091F9028111C9
:1041400006C08091FA02811102C01092F2028091A1
:10415000FB02811106C08091FC02811102C0109205
:10416000F10208958091F30280FD18C081FD14C012
:1041700082FD16C08091F102882381F08C3380F497
:1041800027E0829FC00111246CE370E00E94DB2CC9
:10419000862F672B19F005C083E0089581E008950C
:1041A00087E008958091F30280FD17C081FD17C05C
:1041B00082FD19C08091F202882399F08C3398F423
:1041C00028E3829FC00111246CE370E00E94DB2C85
:1041D000862F672B49F481E008958EE008958CE1E5
:1041E000089588E0089588E308958D3E21F40E94A3
:1041F000D220819504C08E3E29F40E94D220809363
:10420000FA0208958F3E21F40E94D220819504C0C5
:10421000803F29F40E94D2208093F9020895893FBB
:1042200019F40E94B22005C08A3F31F40E94B220E6
:1042300081958093FB0208958B3F21F40E94B22068
:10424000819504C08C3F29F40E94B2208093FC0227
:1042500008959FE0980F983078F421E030E0A901AC
:1042600002C0440F551F9A95E2F7CA019091F802D7
:10427000892B8093F80208958D3F21F48091F302F9
:1042800081600BC08E3F21F48091F302826005C0F3
:104290008F3F29F48091F30284608093F3020895A4
:1042A0006091B702669570E04BE050E080E291E0EB
:1042B0000E94252E892B19F481E0809305030E942A
:1042C000C4189093FF028093FE0208959091B70264
:1042D00090FF36C09170811102C0926006C08B328F
:1042E00010F0946502C0880F982B9093B702662354
:1042F00051F06091B7027091B8028091B90290912B
:10430000BA020E94751E6091B702669570E04BE09C
:1043100050E080E291E00E94252E892B19F0109246
:10432000050302C00E94502181E08093010320E038
:104330004091BA026091B9028091B8020E947A1F3E
:104340000895E7EBF2E080818160808360E08695EC
:104350000E946621089561E00E946621089580917F
:10436000B7028695815009F48AE261E00E946621D5
:1043700008958091B70286958F5F8B3208F081E0B7
:1043800061E00E94662108950E94C4182091F902FC
:10439000211104C02091FA02222321F09093F70208
:1043A0008093F6022091FB02211104C02091FC02AF
:1043B000222321F09093F5028093F402E091E3022E
:1043C000F091E402309731F00480F581E02D88EF20
:1043D00092E00995089580E090E00E94371980E00E
:1043E00090E00E9421191092BC020E946528E8EF1B
:1043F000F2E085E0DF011D928A95E9F71092F20262
:104400001092F1021092F3020E94C4210895CF92FB
:10441000DF92FF920F931F93CF93DF936C01009174
:10442000C5018091A103082BC7E0D0E010E0C801CE
:104430000C2E02C0959587950A94E2F780FD04C082
:104440002197A8F7F12C09C0FC2EB6018C2F0E94F1
:1044500023260E943C26019799F38F2DDF91CF915F
:104460001F910F91FF90DF90CF900895CF93DF932E
:10447000EC010E940722BE010E9423260E943C26D6
:10448000DF91CF910895CF93FC01808191812381A9
:104490003481232B31F09F3F31F491E08F3F19F4A9
:1044A00003C091E001C090E0C92FC17090FD1CC015
:1044B000808191810E94362292959F70963079F08A
:1044C00010F4925001C09A50923088F4803F71F0FD
:1044D00018F4883E60F40AC0843F49F407C0883E5F
:1044E00028F0813F21F402C0C0E001C0C1E08C2F60
:1044F000CF910895A1E1B0E0E0E8F2E20C947A2BCC
:104500008C0185E0F801DE011D9601900D928A95DF
:10451000E1F7F801E28090914703609148034091F0
:104520004A0350914B034115510531F06F3F31F46F
:1045300081E09F3F19F403C081E001C080E0F82FC3
:10454000F1709F2E80FD1BC1F80130812181C38055
:10455000D48087E4A82E83E0B82EF0904903F601BA
:10456000E41BF50BFF2009F4C7C080914C03E83C25
:10457000F10508F092C0482F407F09F051C0621346
:1045800011C093130FC0FE2CE1100CC08F7080611E
:1045900080934C03C5010E944E0480914C03F801A6
:1045A00085832AC1C114D10431F02F3F31F481E059
:1045B0003F3F19F403C081E001C080E080FD03C0EB
:1045C00081E08E2502C080E090E0F82FF170FF2E90
:1045D00080FF1CC080917E0340914D0356E08417FC
:1045E00009F4E8C090E0589FF001599FF00D1124A4
:1045F000E25BFC4F6181261306C06081631303C038
:104600006281E61203C001968770E9CFFE2CEE208E
:1046100009F4F2C080914C03816080934C0349C03F
:10462000621306C0931304C0E11002C0F80186C0F3
:10463000C8010E944322882351F1EE2041F12091CC
:104640004C03822F82958F7090E0029774F08091D6
:1046500047039091480398878F831986DB86CA8623
:104660002C87CE0107960E944E0486E0F801A7E44D
:10467000B3E001900D928A95E1F70E94FD280AC0EF
:104680006217C9F0C8010E94432281111EC0C801EF
:104690000E944E04FF24F394AFC0482F407F81F75F
:1046A00087E493E00E944E0486E0F50111928A951A
:1046B000E9F7F12CA1C09313E5CFE110E3CFF801A6
:1046C0008583C8010E944E0454C0EE2001F320915E
:1046D0004C03822F82958F7090E0029734F2809184
:1046E0004703909148039A8389831B82DD82CC82A1
:1046F0002E83CE010196B7CFE83CF105D0F5FE2C14
:10470000EE2029F2621327C0931325C020914C0399
:1047100020FD18C0822F82958F70482F50E04115E0
:10472000510581F0F80125834F30510541F08F5F2D
:10473000982F9295907F822F8F70892B8583C80147
:104740000E944E0486E0F801A7E4B3E001900D92C8
:104750008A95E1F751C0C8010E944322811185CF9B
:1047600080914C03816080934C03C8010E944E04E9
:1047700043C086E0F50111928A95E9F73DC0EE202D
:1047800009F485CFC8010E944322F82E882309F43A
:104790007ECF86E0F801A7E4B3E001900D928A9500
:1047A000E1F780914703909148030E9436220E94CE
:1047B000FD2822C03D872E878D859E850E9436224A
:1047C000292F22952F70223028F49F7039F0811103
:1047D00005C00BC0243028F49F7049F4805E8830F7
:1047E00020F0C8010E944E049F2CF92C05C0F8014E
:1047F0009581907F99F7F9CF8F2D6196EBE00C941E
:10480000962B292F9E3078F5863068F590E036E0BB
:10481000239F800D911D1124682F677023E09695CA
:1048200087952A95E1F7FC01EE0FFF1FE80FF91FAE
:10483000EA5FFC4F40E050E080E0219130E0062E3E
:1048400002C0369527950A94E2F721703327042E8B
:1048500001C0220F0A94EAF7822B4F5F5F4F43306B
:10486000510559F7089580E00895292F9E3088F565
:10487000863078F590E036E0239F800D911D11245D
:10488000282F277051E001C0550F2A95EAF723E041
:10489000969587952A95E1F7FC01EE0FFF1FE80F2B
:1048A000F91FEA5FFC4F20E030E070E04081CB016F
:1048B000022E02C0969587950A94E2F78170819541
:1048C00084278523842781932F5F3F4F2330310531
:1048D00069F70895A0E2B0E0E0E7F4E20C94822BDF
:1048E0000E94B41B182F80912A028823A9F02FEF71
:1048F00080E792E0215080409040E1F700C0000046
:1049000085E08983812F0E94541B8A838EEF8B83DD
:10491000CE0101960E944D151093C5010E94EB2116
:10492000A096E3E00C949E2B21E030E001C0220F22
:104930008A95EAF720958091C50182230E946A2416
:10494000089521E030E001C0220F8A95EAF78091B6
:10495000C501822B0E946A2408958093A1030E94BE
:10496000EB21089580911601882331F08091EC02AB
:1049700087FF02C08EE101C086E0E9E2F3E0DF01DB
:104980001D928A95E9F70E94EB210895882341F052
:1049900080959091BC0289238093BC020E94652877
:1049A0000895882339F09091BC02892B8093BC0232
:1049B0000E9465280895882321F00E945E280E94A5
:1049C00065280895882339F09091FB01892B809305
:1049D000FB010E9465280895882391F19CEF980FB0
:1049E000913A30F4682F87E293E00E94F9180DC0E5
:1049F00090E2980F983060F4877091E001C0990FB1
:104A00008A95EAF7892F0E945E280E9465280895FA
:104A10009BE5980F933028F480E090E00E943719CE
:104A2000089598E5980F973128F480E090E00E946F
:104A3000211908958D3E20F00E943B200E94C42140
:104A40000895CF93882309F49FC0C82F8CEF8C0F53
:104A5000813A08F05BC0809116018823E1F08091D3
:104A6000EC0287FF18C0EC2FE695E695E695F0E09E
:104A7000E95DFC4F8281282F30E04C2F477081E0A8
:104A800090E002C0880F991F4A95E2F78223932392
:104A9000892B59F411C0E9E2F3E08191C81729F09C
:104AA00083E0EF32F807C9F707C06C2F87E293E085
:104AB0000E94F9180E946528809116018823B1F0A0
:104AC0008091EC0287FF12C0EC2FE695E695E69503
:104AD000F0E0E95DFC4FC77081E090E001C0880F15
:104AE000CA95EAF79281892B828320C0A9E2B3E0BC
:104AF000EFEF80E09D91C917C9F0EF3F19F49111D4
:104B000001C0E82F8F5F8630A9F735C080E28C0F97
:104B1000883078F4C77081E090E001C0880FCA95B2
:104B2000EAF79091FB01892B8093FB010E94652895
:104B30002BC0EBE5EC0FE33040F4F0E0E558FE4F1E
:104B4000808190E00E9437191FC0E8E5EC0FE73143
:104B500050F4F0E0EE0FFF1FE258FE4F808191818C
:104B60000E94211911C0CD3E78F08C2F0E94F520B3
:104B70000E94C42109C0EF3FC9F20E2E000CFF0BAA
:104B8000E95DFC4FC283D2CFCF9108951F93CF939D
:104B9000DF93182FEB010E942125209741F08FE928
:104BA0009FE00197F1F700C000002197F6CF812F19
:104BB0000E94EC24DF91CF911F91089580E0089529
:104BC0009091EC0292FF0DC0282F2871283019F423
:104BD000877F846006C0282F2471243011F48B7FD6
:104BE000886093FF0DC0282F2871283119F4877E23
:104BF000846106C0282F2471243111F48B7E8861D2
:104C00002091ED0220FF0DC0382F3871383019F493
:104C1000877F816006C0382F3171313011F48E7F6B
:104C2000886021FF0DC0282F2871283119F4877E54
:104C3000816106C0282F2171213111F48E7E886197
:104C400094FD877E08957E30A0F4663090F494E55C
:104C5000899FF001112486E0789FE00DF11D112459
:104C6000E60FF11DEE0FFF1FE254FA4F859194916C
:104C7000089580E090E00895CF93DF938238910506
:104C800069F1B0F48133910509F477C048F48932B1
:104C9000910509F469C08A32910509F473C092C084
:104CA0008533910509F45BC089339105B9F08AC059
:104CB000833E910591F138F4803E9105D1F0823E1A
:104CC000910531F17FC0863E9105D9F1873E91056E
:104CD000E9F1843E910509F075C028C02091EC02ED
:104CE00020FD5BC021FD59C02091ED0223FD61C074
:104CF00069C08091EC0280FD4AC08091ED0280FF86
:104D00004CC08091EC0284FD4EC183EE90E04DC119
:104D10008091EC0282FF3EC0F4CF8091EC0282FDD4
:104D200039C08091ED0280FD38C0EBCF8091ED025B
:104D300081FF39C08091EC0284FD35C187EE90E09F
:104D400034C18091EC0283FF2BC0F4CF8091EC0240
:104D500083FD26C08091ED0281FD25C0EBCF8091BF
:104D6000EC0285FD26C022C08091EC0285FD1EC0AC
:104D70008091ED0283FF1DC00AC08091EC0286FD88
:104D80001BC01DC08091EC0286FD19C015C089E3CF
:104D900090E00BC182EE90E008C180EE90E005C18A
:104DA00086EE90E002C184EE90E0FFC085E390E0E3
:104DB000FCC089E290E0F9C08AE290E0F6C081E3AD
:104DC00090E0F3C0811531E5930708F061C08115CB
:104DD00020E59207B0F09C012370332741E050E0BA
:104DE00002C0440F551F2A95E2F7282F26952695D5
:104DF00080E2289F90011124CA01822B932B9D6889
:104E0000D4C0883E910568F5803E910508F0CDC07C
:104E1000883A9105B8F4853A910548F0855AE82F0B
:104E2000F0E0E558FE4F808190E09064BEC0813094
:104E3000910509F4B5C008F4B6C08430910508F4B2
:104E4000B2C0B3C08F3B910508F0ADC0885AE82FBF
:104E5000F0E0EE0FFF1FE258FE4F808191819464D5
:104E6000A4C0811530E2930758F4811521E0920720
:104E700008F09BC08D3E910508F495C0906595C0E3
:104E8000811530E4930708F48EC09F70906A8DC03E
:104E9000811525E5920708F042C0811534E5930796
:104EA00028F0982F8827846F906A7FC0811523E5AA
:104EB0009207B0F09C012370332741E050E002C01C
:104EC000440F551F2A95E2F7282F2695269580E254
:104ED000289F90011124CA01822B932B9A6865C0E8
:104EE000811532E5930728F4982F8827816F906AFF
:104EF0005CC09C012370332741E050E002C0440FA6
:104F0000551F2A95E2F7282F2695269580E2289F9F
:104F100090011124CA01822B932B9C6846C0EC019E
:104F2000C11589E5D807B0F4C11528E5D20728F0E6
:104F30009C2F8827806F906A38C0C11536E5D3074B
:104F400090F58C2F0E94E0258F7190E0982F882794
:104F500090622BC0C1158AE5D80790F48C2F8F7012
:104F60000E94E02594E0D695C7959A95E1F7CF7019
:104F7000D0E0DC2FCC27D0699E01282BC90115C0B9
:104F8000CE0190568115904270F48D2F8F710E9442
:104F9000E025282F2F71CE0199279062922B05C012
:104FA00081E090E002C080E090E0DF91CF91089531
:104FB00068EE7EEF80E090E00E94582C60E082E096
:104FC00090E00E943A2C60E083E090E00E943A2C4E
:104FD0001092A10360E084E090E00E943A2C64E02B
:104FE00082E290E00E943A2C60E085E090E00E942E
:104FF0003A2C60E086E090E00E943A2C6FEF87E068
:1050000090E00E943A2C40E050E0BA0188E090E045
:105010000E944C2C60E08DE090E00E943A2C40E031
:1050200050E0BA0188E190E00E944C2C60E087E1FA
:1050300090E00E943A2C40E050E0BA018CE190E010
:105040000E944C2C60E070E080E290E00E94582CBE
:1050500040E050E0BA0188E190E00E944C2C1092B0
:10506000B2011092B3011092B4011092B50184E024
:105070008093B2014091B2015091B3016091B401AB
:105080007091B5018FE090E00E944C2C40E050E020
:10509000BA0183E190E00E944C2C08958091A00316
:1050A00081111092A00308959091ED0292FF05C026
:1050B0009091A00398138093A003089580959091F8
:1050C000FB0189238093FB0108959091FB0180915E
:1050D000BC02982B909327038091A0038823D9F0DA
:1050E000892B8093270380911601882331F08091CA
:1050F000EC0287FF02C08EE101C086E0E9E2F3E046
:1051000090E0815028F021912223D9F39F5FF9CFBD
:1051100091110E944E2840E250E060E873E087E27F
:1051200093E00E94322E892B21F180E2E7E2F3E046
:10513000A0E8B3E001900D928A95E1F7E091E302D7
:10514000F091E4023097A9F080911601882359F07C
:105150008091EC0287FF07C080912703809328038A
:1051600086E0809327030280F381E02D87E293E0BD
:105170000995089520917F038095822380937F0372
:10518000982F977099F430E0482F082E000C550B9B
:105190002417350759F09091ED0292FF07C08595CD
:1051A000859585950E94942410927F030895CF934E
:1051B000C091ED02C2FB992790F9981791F080FBFE
:1051C000C2F9C093ED026091EC0284E090E00E948D
:1051D0003A2C6C2F82E290E00E943A2C82E00E94EE
:1051E000BA28CF91089580917E0390914D0389173D
:1051F00019F08F5F8770FBCF08950F931F93CF93A4
:10520000DF9380914C0382958F7009F05AC0809192
:105210004903882309F455C080917E0310914D0302
:105220006091470370914803C0914A03D0914B03AA
:1052300091E06F3F09F090E0292F06E0811709F413
:1052400040C0209721F07F3F21F030E003C031E0E3
:1052500001C0322F90E030FD31C0089FF001099F5E
:10526000F00D1124DF01A25BBC4F11963C91119708
:10527000371324C03C91361321C012963C911297EB
:1052800031111CC013964D915C9114974C1B5D0B12
:10529000483C510598F480914C038F708061809355
:1052A0004C03ED5AFC4F80818F708061808387E4CE
:1052B00093E00E944E040E94F32803C00196877079
:1052C000BDCFDF91CF911F910F910895A0E0B0E085
:1052D000ECE6F9E20C947D2B80911E0190911F0168
:1052E000892BB9F08091A2038F5F8093A203811173
:1052F00010C00E94301C90E090931F0180931E010B
:10530000892B39F40E94A71C81E080931D010E9423
:10531000BE1D06EB11E07801D0E0C0E087E0C82EAA
:10532000CC0E8C2F0E94171D8C2D0E94171D8C2FC8
:105330000E947A1D8F73F7019081891721F0808375
:10534000DD24D39401C0D12C8C2D0E947A1D8F7343
:10535000F7019781891719F0878381E001C080E008
:10536000D82ADD290E946B1DCF5FFFEFEF1AFF0ADD
:10537000C730A1F61092A703C091A603CC2309F46D
:10538000C4C00E94C4182091A4033091A503AC01AD
:10539000421B530B9A019093A5038093A4034F3FA4
:1053A000510509F018F4452B19F102C02FEF30E038
:1053B0001092A6031092A303E091B001F091B10105
:1053C000AF01425F5F4F90E030E08081882341F081
:1053D000281718F010829C2F03C0821B80833C2F5B
:1053E0003196E417F50789F73093A6039093A3034A
:1053F000DD2309F47BC0E091B001F091B10180910F
:10540000A7039091A603AAECB1E0AF01425F5F4F02
:105410006EE1E80128813C91321779F03081311139
:105420000CC060832C9398819227282F30E0292B81
:1054300081E0232B09F480E091E0319611960F5F13
:105440001F4FE417F50729F78093A7039093A6034E
:10545000C091A703209129028091A9039091AA03EA
:105460002223C9F1892B31F425982D9826982E985E
:1054700027982F988091A9039091AA039170892B66
:1054800079F48091A803882319F026982E9802C0F9
:10549000269A2E9A9091A80381E089278093A803E9
:1054A0008091A9039091AA038130984750F01092FF
:1054B00029028091C5010E94B41B1092AA03109288
:1054C000A9038091A9039091AA0301969093AA033E
:1054D0008093A9031EC0892BE1F01092AA031092B9
:1054E000A9038091C5010E94B41B13C081E0909173
:1054F000A303992309F4ACCF81117DCF0E94C41876
:105500009093A5038093A40376CFD111F7CF80E0C9
:10551000EECF8C2FCDB7DEB7E8E00C94992B10922C
:10552000B9008CE08093B8000895A0E0B0E0EBE90A
:10553000FAE20C947A2BB82EEB010E94C4186C018D
:10554000C431D10558F0CF3F8FEFD80759F0CE01C5
:1055500064E170E00E945F2B7B0107C0EE24E394BE
:10556000F12C03C025E0E22EF12C84E8A82E94EA69
:10557000992E1092BC009092BC000E94C4188C011D
:105580008091BC0087FD07C0C8010E94B518E816CD
:10559000F906B0F729C08091B900887F883041F0C2
:1055A0008091B900887F803119F00FEF1FEF1EC086
:1055B000B092BB00A092BC000E94C4188C018091E4
:1055C000BC0087FD07C0C8010E94B518E816F9069F
:1055D000B0F70AC08091B900887F883111F080341B
:1055E00021F700E010E00EC00EEF1FEFCF3F8FEF6E
:1055F000D80709F4BECFC6010E94B518C817D9074D
:1056000008F0B7CFC801CDB7DEB7EBE00C94962B0E
:105610000F931F93CF93DF93EB018093BB0084E83C
:105620008093BC000E94C4188C018091BC0087FD4F
:105630000DC0CF3F8FEFD807C1F3C8010E94B51846
:10564000C817D90790F78EEF9FEF0CC02091B900D3
:10565000287F81E090E0283211F480E090E091957D
:1056600081959109DF91CF911F910F9108950F932B
:105670001F93CF93DF93EC0184E88093BC000E94DA
:10568000C4188C018091BC0087FD0DC0CF3F8FEF07
:10569000D807C1F3C8010E94B518C817D90790F7F9
:1056A0008EEF9FEF03C08091BB0090E0DF91CF9120
:1056B0001F910F91089584E98093BC000895AA1B5F
:1056C000BB1B51E107C0AA1FBB1FA617B70710F0ED
:1056D000A61BB70B881F991F5A95A9F7809590951F
:1056E000BC01CD0108952F923F924F925F926F922D
:1056F0007F928F929F92AF92BF92CF92DF92EF9262
:10570000FF920F931F93CF93DF93CDB7DEB7CA1BE2
:10571000DB0B0FB6F894DEBF0FBECDBF09942A880D
:10572000398848885F846E847D848C849B84AA84B5
:10573000B984C884DF80EE80FD800C811B81AA8142
:10574000B981CE0FD11D0FB6F894DEBF0FBECDBF0D
:10575000ED0108958F929F92AF92BF92CF92DF9208
:10576000EF92FF92CF93DF93EC01688179818A8178
:105770009B81611571058105910521F464E279ED44
:105780008BE597E02DE133EF41E050E00E945E2C85
:1057900049015A019B01AC01A7EAB1E40E947D2CAA
:1057A0006B017C01ACEEB4EFA50194010E948B2C3F
:1057B000DC01CB018C0D9D1DAE1DBF1DB7FF03C0CD
:1057C0000197A109B04888839983AA83BB839F77F7
:1057D000DF91CF91FF90EF90DF90CF90BF90AF908F
:1057E0009F908F9008950E94AA2B089580E091E0E9
:1057F0000E94AA2B0895A0E0B0E08093000190934E
:105800000101A0930201B09303010895DC01CB01D3
:10581000FC01F999FECF06C0F2BDE1BDF89A3196C0
:1058200000B40D9241505040B8F70895F999FECF59
:1058300092BD81BDF89A992780B50895A6E1B0E0A0
:1058400044E050E00C94082CA8E1B0E042E050E0C5
:105850000C94082CDC01A40FB51F4150504048F0B7
:10586000CB01840F951F2E910E943B2C415050403C
:10587000D0F70895262FF999FECF92BD81BDF89AF1
:10588000019700B4021639F01FBA20BD0FB6F89484
:10589000FA9AF99A0FBE08950396272F0E943B2C7F
:1058A0000E943A2C252F0E943B2C242F0C943B2C39
:1058B0000196272F0E943B2C0C943A2C052E97FB27
:1058C0001EF400940E94752C57FD07D00E94902C66
:1058D00007FC03D04EF40C94752C509540953095F0
:1058E00021953F4F4F4F5F4F08959095809570954C
:1058F00061957F4F8F4F9F4F08950E94B22CA59FB7
:10590000900DB49F900DA49F800D911D11240895BA
:10591000B7FF0C947D2C0E947D2C821B930B089565
:10592000A1E21A2EAA1BBB1BFD010DC0AA1FBB1FA3
:10593000EE1FFF1FA217B307E407F50720F0A21B15
:10594000B30BE40BF50B661F771F881F991F1A9482
:1059500069F760957095809590959B01AC01BD01AC
:10596000CF010895A29FB001B39FC001A39F700D06
:10597000811D1124911DB29F700D811D1124911D57
:105980000895991B79E004C0991F961708F0961B9B
:10599000881F7A95C9F78095089587FB082E0626FB
:1059A00087FD819567FD61950E94C12C0EF491954C
:1059B00007FC8195089597FB072E16F4009407D0F5
:1059C00077FD09D00E945F2B07FC05D03EF490952F
:1059D00081959F4F0895709561957F4F0895EE0FC3
:1059E000FF1F0590F491E02D09940E94B22C3323FF
:1059F00012F48A1B9B0B0C94FF2C0E94B22CB7FF55
:105A00000895821B930B08950F931F93CF93DF93F9
:105A10008230910510F482E090E0E091AD03F091C6
:105A2000AE0320E030E0A0E0B0E0309719F1408113
:105A300051810281138148175907C8F084179507CF
:105A400069F4109731F012960C93129713961C93E9
:105A500027C00093AD031093AE0322C0211531057A
:105A600019F04217530718F49A01BD01EF01DF0145
:105A7000F801DBCF21153105F9F0281B390B243053
:105A8000310580F48A819B816115710521F0FB014C
:105A90009383828304C09093AE038093AD03FE0191
:105AA000329644C0FE01E20FF31F8193919322507E
:105AB0003109398328833AC02091AB033091AC037C
:105AC000232B41F420910601309107013093AC0360
:105AD0002093AB032091040130910501211531057C
